:100000000C940C020C9453020C9453020C94530263
:100010000C9453020C9453020C9453020C9453020C
:100020000C9453020C9453020C9453020C94D3205E
:100030000C9484210C94311C0C9453020C945302A4
:100040000C9453020C9453020C9453020C94881C8D
:100050000C9453020C9453020C9453020C945302CC
:100060000C9453020C9453020C9453020C945302BC
:100070000C9453021D001B000600C45CC35C1250AC
:10008000C65CC75C1350C85CC95C1450CA5CCB5CCE
:100090001050643214783C1E1E140A0522232526B3
:1000A00028292A2C2D2F3032333536383A3B3D3E25
:1000B0004042434547494A4C4E5051535557595A6F
:1000C0005C5E6062646668696B6D6F717375777989
:1000D0007B7D7F81838587898A8C8E909294969888
:1000E0009A9C9E9FA1A3A5A7A8AAACAEAFB1B3B49A
:1000F000B6B8B9BBBCBEBFC1C2C3C5C6C7C9CACBEF
:10010000CCCDCED0D1D2D2D3D4D5D6D7D7D8D9D9B9
:10011000DADADBDBDBDCDCDCDCDCDDDDDDDDDCDC22
:10012000DCDCDCDBDBDBDADAD9D9D8D7D7D6D5D43F
:10013000D3D2D2D1D0CECDCCCBCAC9C7C6C5C3C20B
:10014000C1BFBEBCBBB9B8B6B4B3B1AFAEACAAA860
:10015000A7A5A3A19F9E9C9A98969492908E8C8A14
:1001600089878583817F7D7B79777573716F6D6BEF
:100170006968666462605E5C5A5957555351504EC7
:100180004C4A4947454342403E3D3B3A3836353379
:1001900032302F2D2C2A2928262523220001010167
:1001A0000101010101010202020202020202020334
:1001B0000303030303030304040404040404050504
:1001C00005050506060606060707070707080808C7
:1001D00008090909090A0A0A0B0B0B0C0C0C0D0D76
:1001E0000D0E0E0E0F0F0F1010111111121213130E
:1001F0001414151516161717181819191A1A1B1B87
:100200001C1D1D1E1E1F20202122222324242526E2
:1002100026272829292A2B2C2D2D2E2F303132321A
:10022000333435363738393A3B3C3D3E3F40414226
:10023000434445464748494A4C4D4E4F505153540C
:10024000555658595A5B5D5E5F61626465666869C0
:100250006B6C6D6F7072737577787A7B7D7E808240
:10026000838587888A8C8E8F91939596989A9C9E89
:10027000A0A2A3A5A7A9ABADAFB1B3B5B7BABCBE99
:10028000C0C2C4C6C9CBCDCFD1D4D6D8DBDDDFE266
:10029000E4E7E9EBEEF0F3F5F8FAFDFF24036B0079
:1002A0007A00720074006E00200075006E006E000F
:1002B00061006D006500640033006B007600320061
:1002C00000000C036B007A00720074006E000000E6
:1002D0000403090409023B00020100A0FA0904001A
:1002E0000001030101000921110100012240000762
:1002F0000581030800010904010001030000000951
:10030000211101000122B60007058203200001121D
:1003100001000200000008554B000001000102002E
:100320000105010902A10185020901A100050919C0
:1003300001290815002501950875018102050109AB
:100340003009311581257F95027508810609381518
:1003500081257F950175088106050C0A38021581F3
:10036000257F950175088106C0C005010980A1019E
:10037000850319012AB700150126B70095017510EC
:100380008100C0050C0901A101850419012AA00200
:10039000150126A002950175108100C0050109060E
:1003A000A1018505050719E029E715002501950834
:1003B000750181020507190029EF1500250195F047
:1003C000750181020508190129059505750191023C
:1003D000950175039101C005010906A101050719E1
:1003E000E029E71500250195087501810295017541
:1003F0000881010507190029FF150026FF00950651
:1004000075088100050819012905950575019102F6
:10041000950175039101C00011241FBECFEFD4E0F8
:10042000DEBFCDBF04B603FE27C08091710290915C
:100430007202A0917302B09174028730904BA74072
:10044000B04BD1F4109271021092720210927302AA
:100450001092740214BE84B7877F84BF0FB6F894DD
:10046000A895809160008861809360001092600080
:100470000FBEE0E0F8E3099511E0A0E0B1E0EAEF9B
:10048000F7E402C005900D92A039B107D9F722E038
:10049000A0E9B1E001C01D92A137B207E1F70E94C7
:1004A0008D110C94D3230C9400000E9430118FEB1B
:1004B0009DE50197F1F700C000000E94301180E037
:1004C0000E94BA1080FF03C081E00C944D0708958C
:1004D00081E0089581E008950C946A0208950C94D7
:1004E0006E021F93CF93DF9300D000D00F92CDB751
:1004F000DEB749835A836B833091920189819A8157
:1005000031111DC06623B9F02223A9F00E944808CA
:10051000182F682F89819A810E94E90769817A8161
:10052000812F0F900F900F900F900F90DF91CF9130
:100530001F910C94780E0E941E08182FEFCF0E9476
:10054000480869817A81EDCFFC01262F40815181D5
:100550006281738184810C94710281E00895CF934C
:10056000DF93EC0160E00E94A402BE01DF91CF9115
:100570000C946F020E9490100E9431030C94B510ED
:100580000C94B81008950E9492060E94C2022FEFA8
:1005900084E39CE0215080409040E1F700C00000DF
:1005A0000C94AC1C0F931F93CF93DF938C0161E0ED
:1005B0000E94A402EC01B8010E946C028823D9F1C8
:1005C000B801CE010E9423198823A9F1B801CE01F8
:1005D0000E947519882379F1B801CE010E94981AFA
:1005E000882349F1B801CE010E94EA17882319F146
:1005F000F8018281882361F0CB35FDE5DF0721F129
:1006000070F4C115ECE5DE07A1F0CF3DDC45C9F083
:10061000C801DF91CF911F910F910C946802CC35E6
:100620008DE5D807A1F0CD35DD4591F70E942F0C5F
:10063000EFCF0E94C30280E0DF91CF911F910F9115
:1006400008950E94A00DF7CF0E94380CE1CF0E94C0
:100650003B0CDECF08950C942A0381E008950C949E
:100660002D030895CF93C82F0E942B038C2FCF9179
:100670000C942F03CF93DF93CDB7DEB72B970FB634
:10068000F894DEBF0FBECDBF4F83588769877A8746
:100690008B8761110E945E0C1E821D8285E0FE0127
:1006A0003796DE01119601900D928A95E1F78C81C3
:1006B0009D81892B89F449815A816B817C818D814F
:1006C0009E810E945A0B2B960FB6F894DEBF0FBE88
:1006D000CDBFDF91CF91089589819A8189238F3F82
:1006E00051F3CE0101960E94AD028111E4CFEBCF10
:1006F000FC01808191810C948A08CF93C82F8823B4
:1007000009F447C08CEF8C0F813AA0F46C2F8091D4
:100710000001909101010E943B1B882329F08C2F3E
:100720000E94FF0B0E948E0C8C2F0E94F80BCF9121
:100730000C948E0C80E28C0F883048F4C77081E0F6
:1007400001C0880FCA95EAF70E94410CF0CFEBE593
:10075000EC0FE33040F4F0E0E75BFE4F808190E087
:10076000CF910C94FB1AE8E5EC0FE73150F4F0E080
:10077000EE0FFF1FE55EFE4F80819181CF910C94BB
:10078000111BCD3E30F08C2F0E941F12CF910C9484
:10079000F212CF910895882361F19CEF980F913A5E
:1007A00020F40E94FF0B0C948E0C90E2980F98306E
:1007B00050F4877091E001C0990F8A95EAF7892F6C
:1007C0000E94470CF0CF9BE5980F933020F490E007
:1007D00080E00C94FB1A98E5980F973120F490E094
:1007E00080E00C94111B8D3E20F00E9479120C9435
:1007F000F21208951F93CF93DF93182FEB010E94FD
:100800007D03209731F4812FDF91CF911F910C94BC
:10081000CB038FE99FE00197F1F700C0000021971B
:10082000F0CF70E060E0893311F460E570E00C9483
:10083000FA03882321F00E94410C0C948E0C089539
:10084000882321F00E94470C0C948E0C0895BF92CF
:10085000CF92DF92EF92FF920F931F93CF93DF938C
:100860006C01D62FC72FFC011281058102950F70F4
:100870000E94160CE82E8823A1F0E12E112389F0A6
:100880008C2F807F803429F080E28D0FE12C88301E
:1008900040F082E00E94DF0C0E94160C91E0E82EEE
:1008A000E926BC2EB2949FE0B922EB2DF0E0EB528A
:1008B000FC4D0C9478230C2F0F70C07F11F0029523
:1008C000007F1123A9F0002359F080E28D0F8830BA
:1008D00010F0D11109C0802F0E94410C0E948E0C93
:1008E0008D2F0E947D0314C0802F0E94510CF6CFE3
:1008F0008D2F0E94CB03002359F080E28D0F8830AA
:1009000010F0D1112CC0802F0E94470C0E948E0C39
:100910002B2D2850330B2430310520F40E94C71AA8
:100920000E943203EE2009F49EC10E94120C80FD49
:100930009AC1F60112820E940C0C0E944D07C6015A
:100940000E9454060E940C0CDF91CF911F910F91D1
:10095000FF90EF90DF90CF90BF900C946E07802FA8
:100960000E94570CD3CFFC2FFF70FF2EC07FC032E8
:1009700019F0F29480EFF822DD2369F0D13049F1CB
:10098000112391F1002351F1F601858180FFA8CF59
:100990008F70858323C0112381F0011106C00E944E
:1009A000710C8F290E941904B3CF0130C1F70E9446
:1009B000710C8F290E94770CABCF011106C00E94E9
:1009C000840C8F2D0E942004A3CF013009F4A0CF06
:1009D000F6CF112329F0063008F09ACF8F2DE2CF01
:1009E000053008F095CFEDCF002359F3D93349F402
:1009F000FFEF27EE33E0F15020403040E1F700C038
:100A000000008D2F0E94CB0383CF8C2F8695869577
:100A1000837069F0813009F07BCF8D2F9C2F93700C
:100A2000111102C090E080E00E94111B71CF8D2F48
:100A30009C2F9370111102C090E080E00E94FB1A7D
:100A400067CF8D2F112329F00E941F120E94F212EE
:100A50005FCF0E947912FACF8C2F837009F041C0CA
:100A6000111156CF4D2F429546954770440F440FB4
:100A70000D2F0F7010E030E020E0042E04C0000FB6
:100A8000111F221F331F0A94D2F760E070E0CB01E0
:100A9000D4FF0FC06FE070E080E090E004C0660F0C
:100AA000771F881F991F4A95D2F76095709580959A
:100AB0009095C695C695C370602B712B822B932B96
:100AC000C23049F058F4C13019F00E94FF0620CF1F
:100AD0000E94ED061DCF0E9411071ACF0E94EB065F
:100AE00017CF8695112311F08C2F8170882309F47C
:100AF0000FCF4D2F429546954770440F440F0D2F51
:100B00000F7010E030E020E0042E04C0000F111F31
:100B1000221F331F0A94D2F760E070E0CB01D4FFAC
:100B20000FC06FE070E080E090E004C0660F771FB8
:100B3000881F991F4A95D2F760957095809590957A
:100B4000C695C695C370602B712B822B932BC23038
:100B500049F058F4C13019F00E94C407D9CE0E9460
:100B6000B207D6CE0E94D607D3CE0E942707D0CE9A
:100B7000CF70112329F08C2F0E944D078D2F12CF9B
:100B80008D2F0E9420048C2F0E946E07C1CED23F71
:100B900089F160F4D03FC9F0D13F29F1112309F464
:100BA00042C001119DCE8C2F8F7121C0D33F39F1EE
:100BB000D43FA1F7112369F1CF718C2F0E944D070B
:100BC00063E08C2F0E94C40CA3CE112341F00530AA
:100BD00008F09ECE8C2F8F710E94910799CE06301F
:100BE00008F096CEF7CF8C2F8F71112369F20E94F7
:100BF0004D078ECE8C2F8F711123C9F3C5CF1123D2
:100C000029F08C2F8F710E94380782CE0E94330703
:100C10007FCE81E00E94DF0C023008F479CE82E0C2
:100C20000E94DF0C75CE002359F0D93309F0E9CECC
:100C30008FEF97EEE3E081509040E040E1F7DFCEA8
:100C40008C2F8F71A1CF4C2F4F706D2FC6010E943A
:100C5000740E0E94B8085CCE4C2F4F706D2FC601E9
:100C60000E94770E55CEDF91CF911F910F91FF908B
:100C7000EF90DF90CF90BF9008950F931F93CF9385
:100C8000DF93EC01688179818A810E9494088C014C
:100C90000E94E8070E94EA06B801CE01DF91CF91D9
:100CA0001F910F910C942704CF93DF93EC018B815C
:100CB0009C81892B29F08881998189238F3F59F460
:100CC000DF91CF910895CE010E943D06CE01DF91C4
:100CD000CF910C94AF02CE010E94D2028111F3CFCA
:100CE0000E94160C882361F38A81882349F382E0ED
:100CF000DF91CF910C94DF0C90E080E00E94FB1A12
:100D000090E080E00E94111B0E945E0C0E946E0C1D
:100D10000E948E0C0E9423140C94F2120E94060C66
:100D20000C947C060E944E0C0C948E06E92FE295E2
:100D3000EF70E250EE3070F4F0E0EB51FC4D0C94AB
:100D40007823803F19F020F4883E20F481E0089554
:100D5000843FE1F380E00895883EC0F3813FD1F7FE
:100D6000F5CF93FB882780F90895FC01808191815C
:100D70000E948A080C949606CF93DF9300D000D08F
:100D80000F92CDB7DEB70F900F900F900F900F908E
:100D9000DF91CF910895CF93DF9300D000D000D0A2
:100DA000CDB7DEB726960FB6F894DEBF0FBECDBF27
:100DB000DF91CF91089508950C94DB060E94DC0624
:100DC00060939C0170939D0180939E0190939F017D
:100DD0000C947C0608950C94DE060F931F930091EB
:100DE0009C0110919D0120919E0130919F01602BEB
:100DF000712B822B932B1F910F910C94DE060F9376
:100E00001F9300919C0110919D0120919E013091B2
:100E10009F0160237123822393231F910F910C94D0
:100E2000DE060F931F9300919C0110919D0120916C
:100E30009E0130919F0160277127822793271F9180
:100E40000F910C94DE060C94DB060C9423070E9491
:100E50002507609398017093990180939A0190936C
:100E60009B010C947C0660E070E0CB010C9427079A
:100E70000F931F9341E050E060E070E08A019B0116
:100E800004C0000F111F221F331F8A95D2F7C9011A
:100E9000B8011F910F910C9427070F931F9341E006
:100EA00050E060E070E004C0440F551F661F771FDC
:100EB0008A95D2F78091980190919901A0919A0119
:100EC000B0919B018A019B01082B192B2A2B3B2BEC
:100ED000C901B8011F910F910C9427070F931F931D
:100EE00041E050E060E070E004C0440F551F661F11
:100EF000771F8A95D2F7CB01BA01609570958095DE
:100F00009095009198011091990120919A0130914A
:100F10009B0160237123822393231F910F910C94D3
:100F200027070F931F9341E050E060E070E004C09A
:100F3000440F551F661F771F8A95D2F7809198013D
:100F400090919901A0919A01B0919B018A019B0116
:100F5000082719272A273B27C901B8011F910F919C
:100F60000C9427070F931F930091980110919901FA
:100F700020919A0130919B01602B712B822B932B36
:100F80001F910F910C9427070F931F9300919801C5
:100F90001091990120919A0130919B016023712356
:100FA000822393231F910F910C9427070F931F9374
:100FB000009198011091990120919A0130919B0123
:100FC00060277127822793271F910F910C94270781
:100FD0000895CF93DF93362F292F220F920F890F79
:100FE000982F9770E1E001C0EE0F9A95EAF7869589
:100FF0008695869590E065E070E00E943F23DC01D5
:10100000AD56BE4F50E040E0632F70E08D91ED0192
:1010100021979B01042E02C0369527950A94E2F78A
:101020002170219528272E23282728834F5F5F4F83
:101030004530510559F7DF91CF910895292F220F9F
:10104000920F890FA82FA77086958695869590E0B8
:1010500065E070E00E943F23FC01ED56FE4F50E03A
:1010600040E080E0219130E00A2E02C036952795BD
:101070000A94E2F721703327042E01C0220F0A944C
:10108000EAF7822B4F5F5F4F4530510559F70895BE
:10109000BF92CF92DF92EF92FF920F931F93CF9365
:1010A000DF938C01C0909801D0909901E0909A0153
:1010B000F0909B0180919C0190919D01A0919E01D7
:1010C000B0919F01C82AD92AEA2AFB2ACFE1D0E0B1
:1010D000BC2ED701C6010C2E04C0B695A7959795D6
:1010E00087950A94D2F780FD0EC0219788F7B12C1E
:1010F0008B2DDF91CF911F910F91FF90EF90DF909B
:10110000CF90BF900895B8018C2F0E94AE0F019729
:1011100061F3EECFCF93DF93EC010E944808BE014C
:10112000DF91CF910C94AE0F1F93CF93DF93EB0120
:1011300090919201992331F0CB01DF91CF911F91D2
:101140000C948A08882379F0CB010E944808182F54
:10115000682FCE010E94E907BE01812FDF91CF9158
:101160001F910C94AE0FCB010E941E08182FF4CFD4
:10117000EF92FF920F931F93CF93DF938C01892BF4
:1011800081F0F12CEE24E394E8012196F80184919A
:10119000843770F4843008F05FC08130B1F0823061
:1011A000A1F1DF91CF911F910F91FF90EF900895E2
:1011B000853709F44CC008F43DC09CE7980F903780
:1011C00080F78F770E94CB0349C00E5F1F4FFE014F
:1011D000849190E2980F983060F48770FE2D01C0E2
:1011E000FF0F8A95EAF78F2F0E94610C0E948E0CE8
:1011F00002C00E947D038F2D815030F2EFE9FFE0A5
:101200003197F1F700C00000F7CF0E5F1F4FFE01CE
:10121000849190E2980F983050F48770FE2D01C0B1
:10122000FF0F8A95EAF78F2F0E94670CDFCF0E948D
:10123000CB03E1CF0E5F1F4FFE01C491C150D8F226
:101240008FE99FE00197F1F700C00000F7CF0E5F34
:101250001F4FFE01F490CFCF0E947D038E01CBCFB4
:10126000CF93DF93C091A0018091A1018C1303C0A3
:10127000DF91CF910895D0E0CE0166E070E00E944A
:101280003F23FC01EE55FE4F408151816281738105
:10129000848195810E94CB062196C770E5CF40914D
:1012A000D2015091D3016091D4017091D501809108
:1012B000D6019091D7010C94CB061F93CF93DF9367
:1012C0008091D701807FA1F48091D401882381F09F
:1012D0002091A001B091A1014091D201A091D30130
:1012E000C091D501D091D601142F1A23B21304C096
:1012F000DF91CF911F91089530E0209711F01F3FAB
:1013000021F42F5F3F4F2770F1CFC90166E070E0F5
:101310000E943F23FC01EE55FE4F81818A13F1CFDD
:1013200080818413EECF82818111EBCF8381948100
:101330008C1B9D0B883C910520F78091D7018F7005
:1013400080618093D701C90166E070E00E943F236D
:10135000FC01E955FE4F90819F709061908382ED72
:1013600091E00E945406DF91CF911F910C943009B7
:10137000AF92BF92CF92DF92EF92FF920F931F93A3
:10138000CF93DF93CDB7DEB761970FB6F894DEBF8A
:101390000FBECDBF8C0185E0F801DE011D960190E6
:1013A0000D928A95E1F7F801E28082EDC82E81E086
:1013B000D82E6091D5017091D6016115710509F49F
:1013C0005DC19091D2013091D301892F83238F3F4A
:1013D00009F454C140812181A380B480F090D401EC
:1013E000F501E61BF70BFF2009F4F8C08091D70147
:1013F000582F507FE83CF10508F0B0C051117AC079
:10140000FE2C321323C0941321C0E1101FC08F7033
:1014100080618093D7010E944F09C6010E94540643
:101420008091D701F80185838F2D61960FB6F894CE
:10143000DEBF0FBECDBFDF91CF911F910F91FF9007
:10144000EF90DF90CF90BF90AF900895AB2829F038
:10145000842F82238F3F09F02AC180E0F82FF1709A
:10146000DF2EE091A0013091A10180FD20C0EE208F
:10147000D9F28091D70181608093D701F12CD4CF2C
:10148000F0E0CF0166E070E00E943F23DC01AE5542
:10149000BE4F11968C911197821307C08C918413C3
:1014A00004C012968C91E812E2CF3196E770E313F4
:1014B000E7CF4D872E878D859E850E948A08292F2C
:1014C00022952F70223050F0243078F49F7051F024
:1014D000F8019581907F31F4D12C0AC09F7011F0F2
:1014E0008823D1F3805E8830B8F3C8010E94540687
:1014F000FD2C9ACF321306C0941304C0F801EE20DD
:1015000009F488C0C8010E94B506882319F1EE20AD
:1015100009F18091D701803270F02091D201309191
:10152000D30138872F831986BB86AA868C87CE0184
:1015300007960E94540686E0F801A2EDB1E0019002
:101540000D928A95E1F70E945D090E944F09FF24E0
:10155000F3946ACFC8010E945406F9CF511114C008
:101560007A2DB98AA88A522F6E2D89890E94BC06CD
:1015700082ED91E00E94540686E0F60111928A9570
:10158000E9F70E944F097ACF32130FC094130DC0B0
:10159000E1100BC0F8018583C8010E94540686E063
:1015A000F60111928A95E9F73FCFC8010E94B5066E
:1015B000882381F2EE2071F28091D701803208F405
:1015C000BACF2091D2013091D3013A8329831B8273
:1015D000BD82AC828E83CE010196ABCFE83CF10593
:1015E00008F03EC0FE2CEE2009F4B4CF32132AC01E
:1015F000941328C08091D70180FD1BC0982F907F45
:10160000C1F0F8018583903F31F0982F907F905F73
:101610008F70892B8583C8010E94540686E0F801EB
:10162000A2EDB1E001900D928A95E1F70E944F0979
:10163000FBCE86E0F801A2EDB1E001900D928A9513
:10164000E1F7F2CEC8010E94B506811174CF8091F6
:10165000D70181608093D701C8010E945406E4CE6F
:101660007A2DB98AA88A522F6E2D89890E94BC06CC
:1016700086E0F60111928A95E9F7D8CFEE2009F4B9
:1016800069CFC8010E94B506F82E882309F462CFFD
:1016900086E0F801A2EDB1E001900D928A95E1F7A4
:1016A00082ED91E00E9478030E945D09BFCF81E046
:1016B0008E25D4CECF93DF93CDB7DEB72C970FB660
:1016C000F894DEBF0FBECDBF4F83588769877A87F6
:1016D0008B879C87CE0107960E94B8098823D1F09A
:1016E0008A859B85892B39F04F815885842F8523E6
:1016F0008F3F09F076C08091A0019091A1018913DC
:1017000049C02C960FB6F894DEBF0FBECDBFDF9157
:10171000CF91089586E0FE013796DE011196019083
:101720000D928A95E1F78A859B85892B21F38F811C
:10173000988589238F3FF9F28091A10190E09C0167
:101740002F5F3F4F277033274091A00142171306A8
:1017500071F40E9492061092A1011092A00186E0FD
:10176000E2EDF1E0DF011D928A95E9F7C4CF66E072
:1017700070E00E943F23DC01AE55BE4F96E0FE01B3
:10178000319601900D929A95E1F72093A1010E9464
:101790003009B1CF90E066E070E00E943F238E55A3
:1017A0009E4F0E94B809882309F4ABCF8091A00115
:1017B00090E066E070E00E943F23FC01EE55FE4F92
:1017C0004081518162817381848195810E94CB0621
:1017D0008091A00190E00196877099278093A001E5
:1017E0008ACF69857A858B859C850E94CB0683CFBD
:1017F000682F80910001909101010C94BB1B682F10
:1018000080910001909101010C94C61B8091000110
:10181000909101010C94D11B8091D80185958595FB
:10182000859508958091D801877008959091D80189
:10183000977081E009F480E008959091520292FB44
:10184000222720F9281751F080FB92F99093520239
:1018500080915102909152020C941C0D0895809138
:10186000520282FB882780F991E089270C941D0C95
:1018700081E00C941D0C80E00C941D0C8091FC0107
:1018800008959091FC01892B8093FC010895809527
:101890009091FC0198239093FC0108951092FC0113
:1018A00008959091FB01892B8093FB010895809509
:1018B0009091FB0198239093FB0108951092FB01F6
:1018C00008959091FA01892B8093FA0108958095EB
:1018D0009091FA0198239093FA0108951092FA01D9
:1018E00008958091D901089508950C94740C9091F5
:1018F000520292FD08C09091D901981721F080936F
:10190000D9010C94750C08958091D901882329F090
:101910001092D90180E00C94750C0895E0910001BB
:10192000F09101018091FC018083E0910001F09130
:10193000010180819091FB01892B8083E09100015E
:10194000F091010180819091FA01892B808390911F
:10195000D901992381F0E0910001F091010180818A
:10196000892B808380910001909101010E94271BA7
:1019700081110E94840C80910001909101010C94CE
:10198000D31A08950C94C10C9091520292FD10C08C
:10199000982F990F990F990F962B9093D8010E9429
:1019A0004D078091D8018595859585950C94C20C3D
:1019B0000C944D071092D80180E00C94C20C9091C9
:1019C000D801809589238093D801282F277039F476
:1019D000282F082E000C330B9217130621F4909138
:1019E000520292FF07C08595859585950E946E07E6
:1019F0000C94DA0C089590E080E00E94992321E095
:101A0000893E9E4F09F020E0822F089582E090E009
:101A10000C948B2383E090E00C948B23CF9384E091
:101A200090E00E948B23C82F82E290E00E948B23DB
:101A3000982F8C2FCF910895CF93C92F682F84E0D2
:101A400090E00E949F236C2F82E290E0CF910C9453
:101A50009F23AB01BC018FE090E00C94B123AB015C
:101A6000BC0183E190E00C94B12360E070E0CB0115
:101A70000C942F0D60E070E0CB010E94290D0C94B6
:101A8000350D69EE7EEF90E080E00E94BD2360E0BE
:101A900082E090E00E949F2360E083E090E00E945B
:101AA0009F2310929C0110929D0110929E01109212
:101AB0009F0160E084E090E00E949F2360E082E26A
:101AC00090E00E949F2360E085E090E00E949F23C9
:101AD00060E086E090E00E949F236FEF87E090E057
:101AE0000E949F2340E050E0BA0188E090E00E940D
:101AF000B12360E08DE090E00E949F2340E050E041
:101B0000BA0188E190E00E94B12360E087E190E0B3
:101B10000E949F2340E050E0BA018CE190E00E94D7
:101B2000B12370E060E080E290E00E94BD2340E0DD
:101B300050E0BA0188E190E00E94B1230C943A0D84
:101B40000C94410D682F8EE090E00C949F230E942E
:101B50006D1C6093030270930402809305029093BE
:101B600006026093FF01709300028093010290933C
:101B700002020895089508950C94BA0D08950C94E6
:101B8000BE0D8CE890E10E94D01C0E94BB0D0C940D
:101B9000BC0D81E008950C94C90D089508950E942C
:101BA000CD0D0C94CE0D0E94581C0E9425110E9450
:101BB0003917E1E5F2E080818068808380915102ED
:101BC000909152020E941C0D0C94BF0DDF92EF9277
:101BD000FF920F931F93CF93DF93CDB7DEB72A9772
:101BE0000FB6F894DEBF0FBECDBF0E943011811139
:101BF0000E94A70D80E00E94BA10E82E8091FE019D
:101C0000D82EDE248E112EC08FEF89838A831B820B
:101C10000E94611C8160782F9D838C8349815A8149
:101C20006B818D810E943A030E946C170E940D13F4
:101C30000E94C71A9091FD01891709F447C00E94BC
:101C4000C71A8093FD012A960FB6F894DEBF0FBE27
:101C5000CDBFDF91CF911F910F91FF90EF90DF905B
:101C60000C9432038091070281FD0E94C010F12C78
:101C700011E000E08D2D812309F10E94CB0D882316
:101C8000A1F0FE821F8291E08E2D812309F490E065
:101C900098870E94611C8160782F9A8789874E817E
:101CA0005F8168858A850E943A038091FE018127C1
:101CB0008093FE010F5F0C3008F0B6CFF394110F44
:101CC00083E0F812D7CF0111AFCF9ECF2A960FB67F
:101CD000F894DEBF0FBECDBFDF91CF911F910F9162
:101CE000FF90EF90DF90089590E080E008950895D0
:101CF000E62F272F280F3327331FC90163E070E039
:101D00000E943F23E80FF92FF11DEE0FFF1FEC5843
:101D1000FF4F859194910895FC01EE0FFF1FEE5641
:101D2000FF4F859194910895CF93DF930E94B20F56
:101D3000EC01811520E5920708F042C0811530E4DE
:101D4000930708F0BFC0883E910528F5803E9105B5
:101D500008F0A0C0883A910588F4853A910508F00A
:101D600092C08130910509F495C0009709F492C0A2
:101D7000049708F08FC0D0E0C0E08CC08F3B910585
:101D800008F48CC0805C9109C03CD105A0F30E948E
:101D90008C0EEC017FC0811540E2940750F4C11510
:101DA00081E0D80708F076C0CD3ED10520F3D0659C
:101DB00071C0811520E3920708F07BC09F70E7CFC8
:101DC000811535E5930770F5811544E5940708F012
:101DD000ADC0C11582E5D80750F4C11521E5D20781
:101DE00008F473C0DC2FCC27C16FD06A53C09C2F7E
:101DF000969596959E0123703327C115D34508F01B
:101E000083C0C1E0D0E002C0CC0FDD1F2A95E2F70D
:101E1000892F90E0E5E0880F991FEA95E1F7C82B3C
:101E2000D92B70C0C11589E5D807A8F4C11528E5DC
:101E3000D20708F080C0C11536E5D30708F09BCF64
:101E40008C2F0E944910C82FD0E0DC2FCC27CC2744
:101E5000DF71D0621FC0C1154AE5D40708F470C015
:101E6000CE0190568115904208F085CF8D2F8F714D
:101E70000E94491090E0982F882788279F719C0125
:101E80002C2BE901E6CFC55AD0E0C658DE4FC881F9
:101E9000D0E0D064CE01DF91CF910895C85AD0E050
:101EA000CC0FDD1FC45BDE4F0990D881C02DD464F8
:101EB000F1CF9927D3FF03C0EC01D86CEBCFEC0135
:101EC000D06CE8CFDF70D06AE5CFCE01A4E0969564
:101ED0008795AA95E1F783702C2F26952695237078
:101EE00030E0B5E0220F331FBA95E1F7382B8C2F85
:101EF0008370C1E0D0E002C0CC0FDD1F8A95E2F70D
:101F0000C22BD32BDC68C6CFC1E0D0E002C0CC0F1F
:101F1000DD1F2A95E2F7892F90E075E0880F991F61
:101F20007A95E1F7C82BD92BDA68B4CFD82FCC2714
:101F3000C46FD06AAFCFDC2FCC27C06FD06AAACFD6
:101F40008C2F8F700E94491034E0D695C7953A9532
:101F5000E1F7CF709C2FEC01D0699CCF0E94780EE6
:101F60000C94940E82389105B1F1B0F4813391054F
:101F700009F475C048F48932910509F469C08A32C0
:101F8000910509F473C008958533910509F459C08A
:101F90008933910501F10895833E9105A9F138F443
:101FA000803E9105F9F0823E910549F10895863E03
:101FB0009105A9F1873E9105C9F1843E910519F576
:101FC0002091520221FF1FC08091510284FD14C054
:101FD00087EE90E00895209151022370A1F080EEE9
:101FE00090E008952091510220FD47C030915202A7
:101FF00030FF09C024FF44C090E080E004C020917D
:10200000510222FDF7CF08952091510222FD3BC0DD
:102010003091520230FDE3CF24FFF5CFEDCF209178
:10202000510223FFF0CF24FDE7CFD2CF2091510200
:1020300023FD2CC03091520231FFEECF84EE90E0B0
:1020400008952091510225FFDECF89E290E00895A6
:102050002091510225FFD7CF85E390E0089520918C
:10206000510226FFD0CF8AE290E0089520915102DC
:1020700026FFC9CF81E390E0089589E390E00895B9
:1020800083EE90E0089582EE90E0089586EE90E071
:1020900008959091510292FF06C0282F2871283090
:1020A000F9F4877F846093FF06C0282F28712831B8
:1020B000F1F4877E84612091520220FF06C0382F00
:1020C00038713830D9F4877F816021FF06C0282F0E
:1020D00028712831D1F4877E816194FD877E08952F
:1020E000282F24712430F9F68B7F8860DCCF282FCD
:1020F0002471243101F78B7E8861DDCF382F317157
:10210000313019F78E7F8860E0CF282F217121317F
:1021100021F78E7E8861E1CF80E008950C9455020E
:102120000E94FB0C811102C00E94A00D0E94060DAE
:10213000809307020E940E0D9093520280935102E9
:102140000E948E100E940A0D682F70E090E080E0DF
:102150000E94EB06609198017091990180919A011B
:1021600090919B010C94250708950C94B410089548
:102170000C94B710E82FF0E0EC5AFD4F80810895E1
:102180000895CF93ADE7B1E040E851E061E070E041
:102190008D918F3F91F0E82FE295EF70F0E0C1A1B3
:1021A0008F709B0101C0220F8A95EAF7922F9095BC
:1021B0009C2391A382A1822B82A34A175B0741F73C
:1021C000CF910895EF92FF920F931F93CF93DF93D8
:1021D0007C01E62FF0E0CF0163E070E00E943F2336
:1021E000EC01C358DE4F50E040E060E001E010E059
:1021F00099919F3FC9F0292F22952F7030E0D90186
:1022000090962C9130E09F7002C0359527959A9555
:10221000E2F720FD18C09801042E02C0220F331FE0
:102220000A94E2F7C901682B4F5F5F4F43305105B5
:10223000F9F6EE0DFF1D6083DF91CF911F910F9195
:10224000FF90EF90089580E0EECF0E94C1101092B1
:1022500053021092540281E00E9456110C94BA026B
:102260001F93CF93DF930F92CDB7DEB7198260E053
:10227000CE0101960E94E21090915302898111E0F3
:10228000981301C010E0981380935302212F41E06E
:1022900064E572E083E592E00E9457110E94C0025B
:1022A000812F0F90DF91CF911F9108950895FF9294
:1022B0000F931F93CF93DF93F82E092F162FD72F4D
:1022C000C42F222349F081E080930A020E94611CFE
:1022D000909309028093080280910A028823A1F05A
:1022E00080910802909109020E94791C039760F086
:1022F000EF2DF02FA12FBD2FCE0FDF2FD11DEC170B
:10230000FD0741F410920A02DF91CF911F910F91C6
:10231000FF90089581918D93F2CF0E94E31B0E945C
:102320002E1E0E94471E0E94591E0E94CF0DFBCFF9
:102330008091110280FF11C08091070190E065E05B
:1023400070E00E943F2395958795959587958038F5
:102350009105B0F50097B1F1089581FF0AC0809111
:10236000070190E065E070E00E943F239595879516
:10237000EECF82FF08C08091070190E065E070E039
:102380000E943F23E4CF809110028823B1F0209176
:1023900006016091070170E0821710F0CB01EECFCB
:1023A00090E00E943F2365E070E00E943F23622F8F
:1023B00070E00E946423CB01CACF85E090E00895CD
:1023C0008FE7089581E008958091110280FF0CC08D
:1023D0006091030170E07595679575956795611536
:1023E000710559F1862F089581FF06C060910301A0
:1023F00070E075956795F3CF6091030170E082FD01
:102400000CC060910F026623A9F020910201809117
:10241000030190E0621730F0BC0160387105F8F2FA
:102420008FE7089570E00E943F23622F70E00E94C2
:102430006423F3CF61E070E0D5CF81E008958D3E55
:1024400031F40E94981181958093150208958E3E73
:1024500019F40E949811F8CF8F3E31F40E94981120
:102460008195809314020895803F19F40E94981179
:10247000F8CF893F29F40E94E41180931602089551
:102480008A3F21F40E94E4118195F7CF8B3F31F40C
:102490000E94E41181958093170208958C3F19F4EE
:1024A0000E94E411F8CF9FE0980F983070F4815F9C
:1024B000990B21E030E001C0220F8A95EAF7809164
:1024C0001302822B8093130208958D3F31F4809183
:1024D000110281608093110208958E3F21F4809152
:1024E00011028260F7CF8F3FB9F7809111028460AB
:1024F000F1CF409114028D3E59F48091150287FF6F
:102500000DC01092150241110BC01092100208C0AC
:102510008E3E81F48091150218169CF3442381F0BD
:102520008091160290911702892B09F05AC01092DF
:102530000F0208958F3E49F447FFF0CF1092140226
:10254000809115028111ECCFE0CF803F19F4141671
:10255000ACF3E4CF90911602893F29F41916F4F6F2
:1025600010921602DBCF8A3F19F497FFD7CFF8CF2E
:10257000909117028B3F29F497FFD0CF109217024A
:10258000CDCF8C3F19F41916CCF3C8CF9FE0980F2C
:10259000983090F4815F990B21E030E0B90102C0DE
:1025A000660F771F8A95E2F7CB0180959091130211
:1025B000892380931302B2CF8D3F31F480911102B1
:1025C0008E7F80931102AACF8E3F21F48091110259
:1025D0008D7FF7CF8F3F09F0A1CF809111028B7FC4
:1025E000F0CF08950E94611C9C019091140280918B
:1025F0001502982B21F030930E0220930D0290913A
:10260000160280911702982B21F030930C02209330
:102610000B0282E192E00C94ED1AEF92FF920F937D
:102620001F93CF93DF9300D000D000D0CDB7DEB79B
:1026300086E0E2E1F2E0DE01119601900D928A95CA
:10264000E1F7E0901402F09015020091160210914B
:102650001702109214021092150210921602109294
:1026600017028E2D8F2991F080910D0290910E020C
:102670000E94791CFC0120911002222309F43FC022
:10268000809108018E171F0608F448C0802F812B07
:1026900091F080910B0290910C020E94791CFC0138
:1026A00020910F02222309F47CC0809104018E172F
:1026B0001F0608F485C08091140290911502892BA1
:1026C00090911602892B90911702892B11F00E948C
:1026D000F21286E0FE013196A2E1B2E001900D9285
:1026E0008A95E1F726960FB6F894DEBF0FBECDBFF0
:1026F000DF91CF911F910F91FF90EF9008958091FE
:10270000090190E06AE070E00E943F238E179F0766
:1027100008F0BCCF2F5F2093100202C02F3FD1F7EB
:10272000EE2051F00E9498116FEF1E140CF461E03E
:102730000E94362380931402FF2051F00E949811CA
:102740006FEF1F140CF461E00E9436238093150292
:1027500080911402882309F499CF20911502222335
:1027600009F494CF082E000C990B65EB70E00E94E1
:102770003F23992371F090931402822F220F990B1B
:1027800065EB70E00E943F23992339F09093150286
:102790007DCF81E080931402F0CF81E08093150219
:1027A00075CF8091050190E06AE070E00E943F23C0
:1027B0008E179F0708F07FCF2F5F20930F0202C074
:1027C0002F3FD1F7002351F00E94E4116FEF101654
:1027D0000CF461E00E94362380931602112351F01D
:1027E0000E94E4116FEF11160CF461E00E94362391
:1027F0008093170280911602882309F45CCF209100
:102800001702222309F457CF082E000C990B65EB11
:1028100070E00E943F23992371F090931602822F5B
:10282000220F990B65EB70E00E943F23992339F04A
:102830009093170240CF81E080931602F0CF81E0A1
:102840008093170238CF86E0E2E1F2E0DF011D92CB
:102850008A95E9F71092100210920F02109211025D
:102860000895EF92FF920F931F93CF93DF93982FCA
:10287000711111C0442329F0E82FF0E0E456FE4F17
:102880009491692F792F892FDF91CF911F910F910B
:10289000FF90EF900895262F30E0C72FD0E0E82F6B
:1028A000F0E0442321F0E456FE4FE491F0E0C9014A
:1028B00066E070E00E943F230FEF10E0B8010E9435
:1028C0005023DB01220F331FCB0165E570E00E942E
:1028D0003F23281B390BE22EEE0CE20EC8018C1BA5
:1028E0009D0BBF010E943F23292FF12CC701BE0180
:1028F0000E943F23492F50E0C801841B950BBF0164
:102900000E943F23392FC8018E199F09BE010E94E2
:102910003F23492F50E0C801841B950BBF010E9443
:102920003F23892F7E2FA230B10589F038F410970C
:1029300059F0119781F0922F232F06C0A430B105D2
:1029400069F080F01697B9F7692F822F9DCF9E2FDF
:10295000722F282FF9CF9E2F732FF6CF922F2E2F65
:10296000782FF2CF722F2E2F932FEECF41E00C94C1
:10297000311408950C94B614CF93DF93762FE901A8
:10298000682F842F0E94BA14798368838A83DF9129
:10299000CF91089580915502982F9E7F29F48170E0
:1029A00082608093550208958E31E8F381708C61C6
:1029B000F8CF88E090E00C949323CF92DF92EF92CF
:1029C000FF926B017C010E94CA14B701A60188E046
:1029D00090E0FF90EF90DF90CF900C94B123E5E56D
:1029E000F2E08DE0808311828FEF828383831482F3
:1029F00060817181828193810C94DD1480915502F4
:102A000080FF02C08695089580E008959091590254
:102A1000933018F49F5F90935902882351F060918E
:102A200055027091560280915702909158020C9471
:102A3000DD14089581E00C940615909159029923B4
:102A400019F0915090935902882351F060915502EA
:102A50007091560280915702909158020C94DD14A7
:102A6000089581E00C941D1570E00C948A18309143
:102A70000B018091550280FF0CC080910A0190E00B
:102A800063E070E00E943F23632F865A9D4F0C94B1
:102A9000341520910C0140910D01822F90E063E0EC
:102AA00070E00E943F23FC01E65AFD4F241728F7EF
:102AB0001182108212822F5F3396F8CFA82FB62F83
:102AC0008091550280FF17C020910C0130910D01BB
:102AD000822F90E063E070E00E943F23FC01E65A01
:102AE000FD4F231710F00C943715A183B083428358
:102AF0002F5F3396F6CF0895CF93DF9300D00F92D8
:102B0000CDB7DEB79091550290FF0AC09E012F5FAE
:102B10003F4F0E94BC144B8169818A810E945E15DF
:102B20000F900F900F90DF91CF910895CF93DF9387
:102B3000EC01EC81F0E0E456FF4F4491E5E5F2E072
:102B4000628181810E947C158C818F5F8C83DF91F3
:102B5000CF910895CF93DF93EC01E5E5F2E0438157
:102B600062818C810E947C158C818F5F8C83DF91C8
:102B7000CF910895EF92FF920F931F93CF93DF931E
:102B800000D00F92CDB7DEB7082FF62E142FE22E0D
:102B90008091550280FF28C0E82FE695F0E0E058CC
:102BA000FE4F908190931F028E7F823039F59E01F7
:102BB0002F5F3F4F802F0E94BC144B8169818A8117
:102BC0000E945E1500935602F0925702109358022D
:102BD000EE2051F06091550270915602809157029B
:102BE000909158020E94DD140F900F900F90DF918A
:102BF000CF911F910F91FF90EF900895923019F4AB
:102C000010915802DFCF963019F400915602DACFB6
:102C10009930C1F6FACFE5E5F2E09181282F4381A2
:102C2000628188E0890F0C94BA1581E00C940B1630
:102C3000E5E5F2E09181282F4381628188EF890FD9
:102C40000C94BA1581E00C941816E5E5F2E0628167
:102C500028E0620F08F46FEF282F438181810C94E4
:102C6000BA1581E00C942516E5E5F2E0628128E0D2
:102C7000621B08F460E0282F438181810C94BA150F
:102C800081E00C943416E5E5F2E0438128E0420F40
:102C900008F44FEF282F628181810C94BA1581E0EE
:102CA0000C944316E5E5F2E0438128E0421B08F46A
:102CB00040E0282F628181810C94BA1581E00C9448
:102CC000521620E00C94BA15EF92FF921F93CF9307
:102CD000DF93EC0110E0EE24EA94F12C30910E0128
:102CE000131770F00E9437159A818C8190FF27C0CE
:102CF0008F5F8C83DF91CF911F91FF90EF900895AC
:102D000080910C01810F9927991F63E070E00E9468
:102D10003F23FC01E65AFD4F632F70E0C7010E947C
:102D20006423812F0E9436239C819F014091580289
:102D300060915702890F0E94BC141F5FCFCF815052
:102D4000D8CFE5E5F2E080818E7F8083608171815C
:102D5000828193810E94DD14109220022FEF80E780
:102D600092E0215080409040E1F700C000000C94B8
:102D7000371560915502669570E041E050E08FE0B4
:102D800091E00E947E23892B19F481E08093200238
:102D90000E94611C909319028093180208959091EB
:102DA000550290FF35C09170811128C092609093B8
:102DB0005502662351F06091550270915602809140
:102DC0005702909158020E94DD1460915502669559
:102DD00070E041E050E08FE091E00E947E23892B7B
:102DE000A1F01092200281E080931B0240915802D2
:102DF00060915702809156020C9461168F3010F04A
:102E00009C61D5CF880F982BD2CF0E94B916EBCFFB
:102E10000895682F90915502969581E0890F8F3023
:102E200008F081E00C94CF1681E00C940917682F0C
:102E30009091550296958FEF890F09F48EE00C94CE
:102E4000CF1681E00C94171761E00C94CF16E5E5DE
:102E5000F2E080818160808386950C9424178091B4
:102E6000550280FD0C94A1160C94271760E00C9479
:102E7000CF1680911E0281112EC00E94FB0C811181
:102E800004C00E94A00D0E94EF140E94D914609308
:102E900055027093560280935702909358026E7FAA
:102EA00061F40E94EF140E94D9146093550270934C
:102EB000560280935702909358020E94CA141092AF
:102EC00020028091550280FF03C086950E9436172C
:102ED00081E080931E0208950F931F93CF93DF9399
:102EE00080912002882309F456C080911F02E0914E
:102EF0005502E695E81BE0931A02823089F5F0E06E
:102F0000E856FF4FE491CE2FD0E006E915E180911D
:102F10001B02882361F010921B020E94611C909397
:102F200019028093180210921D0210921C020E9436
:102F3000611CE0911802F09119028E1B9F0B8F3FCC
:102F40009F4748F5CE0FDF1FD0931902C093180298
:102F500088E192E0F801DF91CF911F910F910994E0
:102F6000863049F4F0E0EB56FF4FE491CE2FD0E0ED
:102F70000AEA15E1CCCFC0EDD7E009EB14E18930C6
:102F800031F6E695F0E0EE56FF4FE491CE2FD0E01B
:102F900004E616E1BCCFDF91CF911F910F91089508
:102FA000FA01811101C0FB010994CF93DF93C82F6F
:102FB000D62F0E94FE148C1740F00E94FE148D172D
:102FC00020F4DF91CF910C9414178C2FDF91CF91C7
:102FD0000C9424170F931F93CF938C01FB01C28194
:102FE000CC2309F495C00E943E0C82720B3CFCE598
:102FF0001F0709F477C060F5063CECE51E0709F4ED
:103000005DC080F4043C9CE5190709F44DC008F04C
:1030100050C0033C1C4509F444C08C2FCF911F9134
:103020000F910895083C9CE5190709F451C008F474
:103030004AC0093CFCE51F0709F44FC04EE556E1C4
:103040006FE476E10A3C1C4541F70E94D01723C08B
:10305000003DECE51E0709F458C0A0F40D3C9CE5CA
:10306000190709F449C008F442C00E3CFCE51F07EB
:1030700009F447C00F3C1C4581F665E082E00E94E0
:10308000D51709C0073D9CE5190738F46EE089E0C3
:10309000023D1C45A0F3C0E0C0CF0E351D45D9F35D
:1030A000BCCF0E942F17F7CF41E257E164E177E1EF
:1030B000CCCF44E157E161E277E1C7CF42E256E18C
:1030C00065E176E1C2CF45E156E162E276E1BDCF4E
:1030D00040E456E161E376E1B8CF41E356E160E4D4
:1030E00076E1B3CF4FE456E16EE576E1AECF41E352
:1030F00055E16AE175E1A9CF4AE155E161E375E186
:10310000A4CF81E00E942417C6CF68E086E0B7CF45
:10311000C1E083CF9C01CB01239A45B1477FE5B144
:10312000E860FFB7F89463E070E00E943F23820FED
:10313000931F8217930741F4FFBF8FE594E0019737
:10314000F1F700C000000895D9015D919D0168E08C
:10315000E5B9000000C057FF45B9550F000000C099
:1031600000C000C045B900C06A9591F7E2CF0F9347
:103170001F93CF93DF93C42FD22FFC01828188232A
:10318000C9F0409323020E94611C90932202809315
:10319000210280E28C0F883008F050C0C77081E0B7
:1031A00001C0880FCA95EAF7DF91CF911F910F9167
:1031B0000C94190410912302141335C0809121023C
:1031C000909122020E94791C883C910560F5C0E232
:1031D000CD0F1D17B9F080E2810F883040F41770D1
:1031E00081E001C0880F1A95EAF70E942004C830D8
:1031F00048F481E09D2F977001C0880F9A95EAF7F7
:103200000E941904802F0E941104C830B8F4D770AE
:1032100081E001C0880FDA95EAF7DF91CF911F9125
:103220000F910C94200480E28C0F883038F4C77022
:1032300081E001C0880FCA95EAF7EFCFDF91CF9107
:103240001F910F9108950F939C01CB01243F4CE5F2
:10325000340759F1A8F4293DFCE53F0701F12A3D67
:103260004CE53407D1F1283D3C4591F406E221EECE
:1032700041EE68ED7CE50E94B71880E00F9108955B
:10328000263FFCE53F07E9F0B0F0273F3C45F9F069
:10329000FC018281882339F110922302EFCF07E2EB
:1032A00025EE45EE69ED7CE5E6CF06E221EE40EE47
:1032B00064EF7CE5E0CF07E225EE44EE65EF7CE5C8
:1032C000DACF06E221EE42EE66EF7CE5D4CF07E2EC
:1032D00025EE46EE67EF7CE5CECF08E221E045EE35
:1032E0006AED7CE5C8CF81E0C9CFCF93DF93EC01D5
:1032F000FB018281882309F419C1C230FCE5DF0794
:10330000C0F1C6319CE5D90730F09E012B5F3C45EA
:103310002930310570F50E940E0D90935202809372
:103320005102C031ECE5DE0709F4CFC008F05BC004
:10333000C8308CE5D80709F4B6C088F5C430ECE590
:10334000DE0709F4A8C0C0F4C2308CE5D80709F440
:103350009CC0809151028260C330DC4509F498C062
:1033600080915102909152020E941C0D0E9492067F
:1033700080E0DF91CF910895809151028061C63045
:10338000ECE5DE0709F484C0809151028860C73003
:10339000DC4508F47DC080915102806279C0CC3058
:1033A0008CE5D80709F489C070F4809151028C60D3
:1033B000CA30ECE5DE0709F46BC008F478C08091F0
:1033C00051028E7F65C0CE308CE5D80709F479C0F4
:1033D000809151028B7FCF30DC4508F459C0809139
:1033E00051028F7E55C0CC3FECE5DE0709F457C093
:1033F00030F5C3318CE5D80709F46FC078F4C131DA
:10340000ECE5DE0709F465C0C231DC4509F0A8CF60
:103410000E949206809151028F773AC0C5318CE5A7
:10342000D80709F462C008F476C080915202816026
:10343000CB3FDC4509F094CF8093520291CFC11568
:10344000FDE5DF0709F44DC088F4809152028D7FBD
:10345000CE3F9CE5D90781F3809152028E7FCF3F0A
:10346000DC4550F3809152028360E6CFC230FDE527
:10347000DF0709F459C008F444C080E0C330DD45DB
:1034800009F06ECF0E94A20D6BCF80915102816036
:103490008093510265CF809151028460F9CF809171
:1034A00052028260C9CF809151028064F1CF0E94A4
:1034B0009206809151028068EBCF809151028D7FFE
:1034C000E7CF80915102877FE3CF809151028F7DBA
:1034D000DFCF809151028F7BDBCF80915102837FC0
:1034E000D7CF809152028C7FA7CF8091510282FB6F
:1034F000992790F921E0922790FB82F990FB83F9BC
:10350000C7CF80915202982F909591708E7F892B12
:1035100090FB81F991CF0E94920690915102892FE0
:1035200097FB87F98058B4CF81E0ACCF81E021CF01
:10353000CF93DF93EB0186319C4511F50E943E0C41
:103540009A81992399F08A7A91E009F490E0909316
:103550002402811109C089E20E94F80B0E948E0C9E
:1035600080E0DF91CF91089585E3F6CF809124022A
:10357000811104C089E20E94FF0BF0CF85E3FBCFED
:1035800081E0EFCF90932A02809329020895E09181
:103590002902F0912A02309721F00190F081E02D6C
:1035A000099480E00895E0912902F0912A02309771
:1035B00099F020911A01222359F02091510227FFFE
:1035C00007C0DC012C9111962C93119725E02C93C8
:1035D0000280F381E02D09940895E0912902F09191
:1035E0002A02309739F022E0DC012C930480F58127
:1035F000E02D099408952091270230912802281780
:10360000390771F09093280280932702E0912902F4
:10361000F0912A02309721F00680F781E02D09947D
:10362000089520912502309126022817390771F05C
:103630009093260280932502E0912902F0912A02BC
:10364000309721F00084F185E02D09940895FC0164
:10365000329680911A01882321F0809151029EE1D7
:1036600087FF96E080E0915008F40895219122238D
:10367000D1F38F5FF8CF662301F120911A01222345
:10368000F1F02091510227FF1AC0462F469546952A
:1036900046954E3190F4677021E030E002C0220F71
:1036A000331F6A95E2F7840F911DFC01828190E03F
:1036B0002823392381E0232B69F480E00895FC015D
:1036C000329608962191261721F0E817F907D1F7CD
:1036D000F4CF81E008959C01FC0132969FEF80E0D9
:1036E0004191461751F09F3F19F4411101C0982FA5
:1036F0008F5F8630A9F79F3F09F40895290F311D88
:1037000097FD3A95F90162830895FC013296089677
:103710002191261303C0DF0111971C92E817F907C6
:10372000B9F70895E62FE695E695E695EE3168F44B
:10373000E80FF92FF11D677021E030E001C0220F82
:103740006A95EAF78281822B82830895E62FE695B7
:10375000E695E695EE3170F4E80FF92FF11D6770EC
:1037600021E030E001C0220F6A95EAF720958281BE
:1037700028232283089520911A01222329F02091E1
:10378000510227FD0C94921B0C946B1B20911A0183
:10379000222329F02091510227FD0C94A61B0C94A2
:1037A000851BFC01329680911A01882351F080918B
:1037B000510287FF06C08EE1DF011D928A95E9F76D
:1037C000089586E0F9CF0895089508950C94E51BB7
:1037D00080916802843049F10E94E61B80E00E94DB
:1037E000320310922B0288E190E020E40FB6F894A7
:1037F000A895809360000FBE2093600083B7817FFF
:10380000846083BF83B7816083BF7894889583B7D2
:103810008E7F83BF0FB6F894A89580916000886171
:1038200080936000109260000FBE089508950E947A
:10383000E41B0E9430110E94161C80E00E94BA1006
:1038400091E0811101C090E0892F089508950C94B2
:10385000261C0E9492060E94C71A0E9432030C94F2
:10386000271C1F921FB61F9211248F939F93AF9313
:10387000BF9380912B02811113C0809160029091BF
:103880006102A0916202B09163024196A11DB11D37
:103890008093600290936102A0936202B0936302EE
:1038A000BF91AF919F918F911F901FBE1F90189550
:1038B00082E084BD93E095BD9AEF97BD80936E0042
:1038C00008952FB7F8948091600290916102A091C1
:1038D0006202B09163022FBF08952FB7F8946091F0
:1038E00060027091610280916202909163022FBF29
:1038F00008959C014FB7F894809160029091610205
:10390000A0916202B09163024FBF821B930B089596
:1039100078941F921FB61F9211248F939F93AF9399
:10392000BF938091600290916102A0916202B09178
:1039300063020196A11DB11D809360029093610204
:10394000A0936202B0936302BF91AF919F918F9158
:103950001F901FBE1F90189581E08093E00080E2C9
:103960008093D8001092C9008FE19EE40197F1F78F
:1039700000C0000087E090EBDC018093710290931F
:103980007202A0937302B093740288E19CE00FB6B8
:10399000F894A895809360000FBE90936000FFCFCD
:1039A0009093910180939001089580914F02089522
:1039B00090916802943031F580932C0270932E021E
:1039C00060932D0282E08093E9008FEF9091E800F0
:1039D000815095FD06C095ED9A95F1F70000811193
:1039E000F5CF8091E80085FF0DC050E040E063E036
:1039F00070E08CE292E00E94E41E8091E8008E77F5
:103A00008093E8000895BC0184E00C94D81CBC01AC
:103A100083E00C94D81C9C0182E08093E9009FEF26
:103A20008091E800915085FD06C085ED8A95F1F7FB
:103A300000009111F5CF8091E80085FF0CC050E0A7
:103A400040E066E070E0C9010E94E41E8091E80059
:103A50008E778093E8000895CF93DF93EC018091F7
:103A60001A018823B1F18091510287FF32C060E2D0
:103A700082E08093E9008FEF9091E800815095FDFE
:103A800006C095ED9A95F1F700008111F5CF809170
:103A9000E80085FF1BC080911A0170E050E040E013
:103AA000811104C050E040E068E070E0CE010E9467
:103AB000E41E8091E8008E778093E80080E2FE01AA
:103AC000AFE2B2E001900D928A95E1F7DF91CF91DC
:103AD000089568E081E0CDCF08950895089542E00B
:103AE00061EC81E00E94EC1F42E261EC82E00C9408
:103AF000EC1F80916A02833009F45DC030F481309C
:103B0000B1F1823009F499C008958A3009F485C072
:103B10008B3009F46BC0893009F04CC08091690288
:103B2000813209F047C080916D0290916E02029738
:103B300008F040C08091E800877F8093E800809182
:103B4000E80082FF33C08091F200823029F4809136
:103B5000F1008B7F813021F48091F10080934F023E
:103B60008091E8008B778093E8000C94202080916E
:103B70006902813AF9F48091E800877F8093E80038
:103B800080916D0290916E02892B61F460E28FE268
:103B900092E070E00E94331F8091E8008B77809361
:103BA000E800089560E090E080E0F3CF8091680243
:103BB0008111C5CF089580916902813AD9F780912A
:103BC0006D0290916E02892BA9F78091E800877FA2
:103BD0008093E8008091E80080FFFCCF80911A017B
:103BE0008093F1008091E8008E77BDCF80916902CB
:103BF000813201F780916D0290916E02892BD1F68E
:103C00008091E800877F8093E8000E9420208091C7
:103C10006B0280931A010C949206809169028132A2
:103C200049F68091E800877F8093E8000E94202079
:103C300080916C0280935002089580916902813ACC
:103C400009F0B8CF8091E800877F8093E8008091E9
:103C5000E80080FFFCCF80915002C2CF84B7877FFD
:103C600084BF0FB6F894A895809160008861809316
:103C70006000109260000FBE80E890E00FB6F894EC
:103C800080936100909361000FBE0C94C10D0E945F
:103C900070200E94C320E2EEF0E080818460808387
:103CA00078940E941B230E94D30D80E191E00C9434
:103CB000C21A80916802853031F4809168028530A3
:103CC00021F00E94291C0C94E60D0E94E81B8091B3
:103CD0006602882391F30E94171C882371F30E94C7
:103CE000CE1E0E949206E9CF0C94761E292F332710
:103CF0002330310519F168F42130310509F444C04D
:103D00002230310509F445C090E080E030E020E049
:103D100025C02132310549F122323105A9F780E46D
:103D200090E027ED33E061157105C1F086EB90E07E
:103D300021E233E06130710589F0E6CF99278130C7
:103D4000910581F0009729F00297F1F6ECE9F2E095
:103D500002C0E0EDF2E0849190E09F01FA0131832E
:103D600020830895E2ECF2E0F6CF89E090E026EEC1
:103D700032E06115710591F389E090E02FEF32E0B8
:103D80006130710559F3C0CF82E190E02FE033E05C
:103D9000E5CF8BE390E024ED32E0E0CF84E089BD15
:103DA00086E089BD09B400FEFDCF8091D8008F7DEB
:103DB0008093D8008091E00082608093E000809141
:103DC000E00081FDFCCF0895AF92BF92CF92DF92C9
:103DD000FF920F931F93CF93DF936C01EB018A0146
:103DE0000E943F20F82E811123C00115110539F0E2
:103DF000F80180819181C81BD90BC80ED91EB12C46
:103E0000A12C2097A9F08091E80085FD22C0809127
:103E1000E8008E778093E80001151105A1F0F80104
:103E200080819181A80EB91EB182A08285E0F82E12
:103E30008F2DDF91CF911F910F91FF90DF90CF9049
:103E4000BF90AF9008950E943F208823D1F2F82EB2
:103E5000EFCFF60181916F018093F1002197FFEF81
:103E6000AF1ABF0ACECFFC0180916F029091700211
:103E700086179707A0F06115710529F49091E80065
:103E80009E779093E80090E06115710551F49111CF
:103E900008C08091E80082FF32C080E00895BC0134
:103EA000F2CF809168028823B1F18530B1F1809121
:103EB000E80083FD2EC08091E80082FDEACF80916A
:103EC000E80080FFE1CF2091F20030E0611571053C
:103ED00019F02830310558F091E02830310509F00B
:103EE00090E02091E8002E772093E800CDCF8191DB
:103EF0008093F100615071092F5F3F4FE7CF8091B0
:103F00006802882341F0853041F08091E80083FF0A
:103F1000C0CF81E0089582E0089583E00895FC0118
:103F200080916F029091700286179707A0F061153B
:103F3000710529F48091E8008E778093E80090E085
:103F40006115710551F4911108C08091E80082FF5C
:103F500033C080E00895BC01F2CF809168028823CD
:103F6000B9F18530B9F18091E80083FD2FC08091CF
:103F7000E80082FDEACF8091E80080FFE1CF209148
:103F8000F20030E06115710519F02830310558F064
:103F900091E02830310509F090E08091E8008E77BB
:103FA0008093E800CDCF84918093F10031966150E9
:103FB00071092F5F3F4FE6CF80916802882341F05F
:103FC000853041F08091E80083FFBFCF81E0089504
:103FD00082E0089583E00895982F953028F08F703F
:103FE0008093E90081E008959093E900242F762FD3
:103FF00050E0981731F07091EC002091ED00509155
:10400000F00021FD02C09F5FE8CF3091EB003E7FC2
:104010003093EB003091ED003D7F3093ED00309117
:10402000EB0031603093EB007093EC002093ED00D7
:104030005093F0002091EE0027FDE5CF80E0089539
:104040008091690287FF13C08091E80082FF06C05B
:104050008091E8008B778093E80004C0809168022B
:104060008111F2CF0895809168028823D9F380915D
:10407000E80080FFF8CF8091E8008E77ECCF2091A8
:10408000E4003091E50095E6A9012091EC00822F33
:10409000817020FF06C08091E80080FF06C080E0AC
:1040A00008952091E80022FD1AC0809168028823BB
:1040B00089F0853089F08091EB0085FD0FC020915B
:1040C000E4003091E50042175307F9F29150E1F610
:1040D00084E0089582E0089583E0089581E00895E2
:1040E0000E94CD200E94D020E0EEF0E0808181602F
:1040F0008083E8EDF0E080818F77808319BCE3E670
:10410000F0E08081816080831092670208950E94B0
:10411000CD200E94D0208091D8008F778093D80046
:104120008091D80080688093D8008091D8008F7DDE
:104130008093D80084E089BD86E089BD09B400FE83
:10414000FDCF1092680210926402109266021092E3
:10415000650242E060E080E00E94EC1F8091E10097
:104160008E7F8093E1008091E20081608093E20085
:104170008091E20088608093E2008091E0008E7F71
:104180008093E0000895E3E6F0E080818E7F8083F5
:1041900081E0809367020C9487201092E2000895DA
:1041A0001092E10008951F920F920FB60F92112402
:1041B0002F933F934F935F936F937F938F939F932F
:1041C000AF93BF93EF93FF938091E10082FF0BC009
:1041D0008091E20082FF07C08091E1008B7F809395
:1041E000E1000E941A238091E10080FF19C08091B4
:1041F000E20080FF15C08091E2008E7F8093E20094
:104200008091E20080618093E2008091D80080621A
:104210008093D80019BC85E0809368020E946D1DD0
:104220008091E10084FF2BC08091E20084FF27C0D1
:1042300084E089BD86E089BD89B5982F917080FFA3
:10424000FBCF8091D8008F7D8093D8008091E100D2
:104250008F7E8093E1008091E2008F7E8093E20068
:104260008091E20081608093E20080916402882363
:1042700009F443C084E0809368020E946E1D80911F
:10428000E10083FF29C08091E20083FF25C0809177
:10429000E100877F8093E10082E0809368021092C2
:1042A00064028091E1008E7F8093E1008091E200C2
:1042B0008E7F8093E2008091E20080618093E20033
:1042C00042E060E080E00E94EC1F8091F000886096
:1042D0008093F0000E946C1DFF91EF91BF91AF9110
:1042E0009F918F917F916F915F914F913F912F910E
:1042F0000F900FBE0F901F9018958091E30087FDDF
:1043000093E090936802B9CF1F920F920FB60F926D
:1043100011242F933F934F935F936F937F938F93CA
:104320009F93AF93BF93CF93DF93EF93FF93D0917E
:10433000E900DF708091EC00C82FC17080FDC0E8FB
:104340001092E9008091F000877F8093F0007894CC
:104350000E94C8211092E9008091F000886080934B
:10436000F000CD2BCF70C093E900FF91EF91DF916A
:10437000CF91BF91AF919F918F917F916F915F91FD
:104380004F913F912F910F900FBE0F901F90189556
:104390001F93CF93DF93CDB7DEB7AA970FB6F894EC
:1043A000DEBF0FBECDBF89E692E02091F100FC0197
:1043B0002193CF01F2E081379F07B9F70E94791D61
:1043C0008091E80083FF1EC18091690290916A028A
:1043D0009A3008F017C1E92FF0E0ED50FC4D0C9435
:1043E0007823803899F0823809F00CC180916D02F1
:1043F0008F70853008F006C18093E9008091EB0052
:1044000085FB882780F91092E90006C0809165023B
:1044100090916602911182609091E800977F90934D
:10442000E8008093F1001092F1008091E8008E770F
:10443000E5C0882309F4D3C0823009F0E3C080913D
:104440006B028111D6C080916D028F702FEF280F03
:10445000243008F0D7C08093E9002091EB0020FFC2
:10446000C8C0933031F48091EB0080628093EB0000
:10447000C0C09091EB0090619093EB0021E030E0A0
:1044800001C0220F8A95EAF72093EA001092EA0011
:104490008091EB008860EACF8111B4C010916B026B
:1044A0001F778091E3008078812B8093E3008091D7
:1044B000E800877F8093E8000E9420208091E80038
:1044C00080FFFCCF8091E30080688093E30082E06E
:1044D000111183E08093680295C08058823008F003
:1044E00091C080916B0290916C028C3D23E0920709
:1044F000A1F583E08A838AE289834FB7F894DE01CD
:10450000139620E03EE051E2E32FF0E05093570095
:10451000E49120FF03C0E295EF703F5FEF708E2FB4
:1045200090E0EA30C0F0C7968D939D932F5F2431C1
:1045300059F74FBF8091E800877F8093E8006AE2D7
:1045400070E0CE0101960E94331F8091E8008B77C6
:104550008093E80057C0C096E7CF60916D027091DC
:104560006E02AE014F5F5F4F0E94741EBC01892B2B
:1045700009F448C09091E800977F9093E800898102
:104580009A810E948F1FE1CF8038E1F58091E80089
:10459000877F8093E800809164028093F10045CF8B
:1045A000811130C090916B02923060F58091E800EB
:1045B000877F8093E800909364020E94202080917E
:1045C0006402882311F084E005C08091E30087FD38
:1045D000FACF81E0809368020E946F1D13C0809122
:1045E0006B02813079F481E0933009F080E08093B0
:1045F00066021092E9008091E800877F8093E800CE
:104600000E9420208091E80083FF0AC08091E8008A
:10461000877F8093E8008091EB0080628093EB00BD
:10462000AA960FB6F894DEBF0FBECDBFDF91CF9133
:104630001F9108950895CF93809168028823A1F077
:10464000C091E900CF709091EC00892F817090FDAE
:1046500080E8C82B1092E9008091E80083FD0E9459
:10466000C821CF70C093E900CF910895002480FD48
:10467000060E660F11F08695D1F7802D089500245F
:10468000552704C0080E591F880F991F009729F05D
:1046900076956795B8F37105B9F7802D952F089534
:1046A000AA1BBB1B51E107C0AA1FBB1FA617B70758
:1046B00010F0A61BB70B881F991F5A95A9F7809574
:1046C0009095BC01CD01089597FB072E16F4009438
:1046D00007D077FD09D00E94502307FC05D03EF497
:1046E000909581959F4F0895709561957F4F08959E
:1046F000EE0FFF1F0590F491E02D0994FC0141504D
:10470000504030F001900616D1F73197CF0108954F
:10471000882799270895F999FECF92BD81BDF89A0F
:10472000992780B50895A6E1B0E044E050E00C94EC
:10473000C523A8E1B0E042E050E00C94C523262F49
:10474000F999FECF92BD81BDF89A019700B4021687
:1047500039F01FBA20BD0FB6F894FA9AF99A0FBE35
:1047600008950396272F0E94A0230E949F23252FA0
:104770000E94A023242F0C94A0230196272F0E948F
:10478000A0230C949F23DC01CB01FC01F999FECFFF
:1047900006C0F2BDE1BDF89A319600B40D924150C9
:1047A0005040B8F70895F894FFCF5B045B04B3045E
:1047B000B30405052105880488042C05B805C70540
:1047C000C7052306880488042C06A106A106AA06AC
:1047D000AA06AC06AA06AA06AA06A106A106B10662
:1047E000AA06AA06B106F1211922022319220223E0
:0A47F0004C226D220223C422D022C5
:1047FA00DA012808641E140A321E000200020201AD
:10480A00D51C2C1D0B1D071D031D01E200E900EA42
:10481A0000B500B600B700CD008301CC008A019232
:10482A000194012102230224022502260227022AD8
:10483A0002B300B4006F007000818283E200E900D5
:10484A00EA00B500B600B700CD008301CC008A01AA
:10485A009201940121022302240225022602270240
:10486A002A02B300B4006F007000818283343637A5
:10487A0000010202020206060609090909090900DD
:00000001FF
