:100000000C9460020C94A7020C94A7020C94A70213
:100010000C94A7020C94A7020C94A7020C94A702BC
:100020000C94A7020C94A7020C94A7020C949619A6
:100030000C9452190C94631A0C94A7020C94A70206
:100040000C94A7020C94A7020C94A7020C943F1ADC
:100050000C94A7020C94A7020C94A7020C94A7027C
:100060000C94A7020C94A7020C94A7020C94A7026C
:100070000C94A70205010980A101850319012AB783
:1000800000150126B700950175108100C0050C0907
:1000900001A101850419012AA002150126A00295DB
:1000A0000175108100C005010906A101850505073C
:1000B00019E029E71500250195087501810205075A
:1000C000190029EF1500250195F075018102050839
:1000D0001901290595057501910295017503910195
:1000E000C00660FF0961A1010962150026FF0095A5
:1000F00020750881020963150026FF009520750808
:100100009102C005010906A101050719E029E715BB
:100110000025019508750181029501750881010589
:1001200007190029FF150026FF00950675088100B4
:1001300005081901290595057501910295017503B9
:100140009101C0000000000000000000000000005D
:10015000000000000000000000000000000000009F
:10016000000000000000007E0F00D4FFFFFFC7006A
:1001700000007800000000000000002A2B2800008A
:100180000000000000000000000000000000290046
:100190000000002C1E3420212224342627252E3650
:1001A0002D3738271E1F20212223242526333336BE
:1001B0002E37381F0405060708090A0B0C0D0E0F11
:1001C000101112131415161718191A1B1C1D2F3194
:1001D00030232D350405060708090A0B0C0D0E0FF8
:1001E000101112131415161718191A1B1C1D2F3174
:1001F00030354C643214783C1E1E140A050001018F
:1002000001010101010101020202020202020202D5
:1002100003030303030303030404040404040405A5
:100220000505050506060606060707070707080869
:100230000808090909090A0A0A0B0B0B0C0C0C0D1A
:100240000D0D0E0E0E0F0F0F1010111111121213B3
:10025000131414151516161717181819191A1A1B2E
:100260001B1C1D1D1E1E1F2020212222232424258D
:100270002626272829292A2B2C2D2D2E2F303132C6
:1002800032333435363738393A3B3C3D3E3F4041D6
:1002900042434445464748494A4C4D4E4F505153BE
:1002A00054555658595A5B5D5E5F61626465666875
:1002B000696B6C6D6F7072737577787A7B7D7E80F9
:1002C00082838587888A8C8E8F91939596989A9C45
:1002D0009EA0A2A3A5A7A9ABADAFB1B3B5B7BABC59
:1002E000BEC0C2C4C6C9CBCDCFD1D4D6D8DBDDDF2A
:1002F000E2E4E7E9EBEEF0F3F5F8FAFDFF2223255F
:100300002628292A2C2D2F3032333536383A3B3DDA
:100310003E4042434547494A4C4E50515355575928
:100320005A5C5E6062646668696B6D6F7173757745
:10033000797B7D7F81838587898A8C8E9092949644
:10034000989A9C9E9FA1A3A5A7A8AAACAEAFB1B353
:10035000B4B6B8B9BBBCBEBFC1C2C3C5C6C7C9CAA3
:10036000CBCCCDCED0D1D2D2D3D4D5D6D7D7D8D965
:10037000D9DADADBDBDBDCDCDCDCDCDDDDDDDDDCC3
:10038000DCDCDCDCDBDBDBDADAD9D9D8D7D7D6D5D5
:10039000D4D3D2D2D1D0CECDCCCBCAC9C7C6C5C397
:1003A000C2C1BFBEBCBBB9B8B6B4B3B1AFAEACAAE4
:1003B000A8A7A5A3A19F9E9C9A98969492908E8C94
:1003C0008A89878583817F7D7B79777573716F6D6E
:1003D0006B6968666462605E5C5A59575553515048
:1003E0004E4C4A4947454342403E3D3B3A383635FC
:1003F0003332302F2D2C2A2928262523221D001B9D
:10040000000600C35CC25C1250C55CC65C1350C7DA
:100410005CC85C1450C95CCA5C105009025B0003E4
:100420000100A0FA090400000103010100092111E3
:1004300001000122400007058103080001090401B1
:10044000000203000000092111010001222200071F
:1004500005820320000107050303200001090402AF
:10046000000103000000092111010001226D0007B5
:100470000584032000011201000200000008554B12
:10048000000001000102000124036B007A007200E9
:1004900074006E00200075006E006E0061006D003B
:1004A0006500640033006B007600320000000C032E
:1004B0006B007A00720074006E00000004030904EF
:1004C00011241FBECFEFD4E0DEBFCDBF04B603FEC4
:1004D00027C08091210290912202A0912302B09125
:1004E00024028730904BA740B04BD1F410922102E8
:1004F00010922202109223021092240214BE84B79A
:10050000877F84BF0FB6F894A895809160008861BA
:1005100080936000109260000FBEE0E0F8E3099560
:1005200022E0AEE5B1E001C01D92A132B207E1F7D1
:1005300011E0A0E0B1E0ECEFFEE302C005900D9207
:10054000AE35B107D9F70E948A1A0C94451F0C9456
:1005500000002091E4003091E50095E6A90120918A
:10056000EC00822F817020FF06C08091E80080FFA0
:1005700006C080E008952091E80022FD1AC0809115
:100580000F02882389F0853089F08091EB0085FD8A
:100590000FC02091E4003091E50042175307F9F2B3
:1005A0009150E1F684E0089582E0089583E0089593
:1005B00081E00895EF92FF920F931F93CF937C01F8
:1005C0008B010E94A902C82F811117C08091E800F9
:1005D00085FD0BC08091E8008E778093E8000E9433
:1005E000A902882399F3C82F08C0F70181917F01E0
:1005F0008093F1000150110949F78C2FCF911F9181
:100600000F91FF90EF9008958091110287FF13C022
:100610008091E80082FF06C08091E8008B7780938C
:10062000E80004C080910F028111F2CF08958091FB
:100630000F028823D9F38091E80080FFF8CF8091E2
:10064000E8008E77ECCF982F9093E900242F762F37
:1006500050E0891731F07091EC002091ED0050913D
:10066000F00021FD07C09F5F953071F78093E9008E
:1006700081E008953091EB003E7F3093EB003091A4
:10068000ED003D7F3093ED003091EB003160309311
:10069000EB007093EC002093ED005093F00020915C
:1006A000EE0027FDE0CF80E00895FC018091170265
:1006B0009091180286179707A0F06115710529F42B
:1006C0009091E8009E779093E80090E061157105A5
:1006D00051F4911108C08091E80082FF32C080E09F
:1006E0000895BC01F2CF80910F028823B1F18530CB
:1006F000B1F18091E80083FD2EC08091E80082FD79
:10070000EACF8091E80080FFE1CF2091F20030E055
:100710006115710519F02830310558F091E0283045
:10072000310509F090E02091E8002E772093E80051
:10073000CDCF81918093F100615071092F5F3F4FC0
:10074000E7CF80910F02882341F0853041F08091FE
:10075000E80083FFC0CF81E0089582E0089583E040
:100760000895089508958091EC0108952FB7F894A5
:100770008091190290911A02A0911B02B0911C0263
:100780002FBF089520910B012223C9F02091E6018B
:1007900027FF15C0E62FE695E695E695EE31D8F4ED
:1007A000E80FF92FF11D677021E030E001C0220F42
:1007B0006A95EAF720958281282322830895FC0117
:1007C000329608962191621303C0DF0111971C92A3
:1007D000E817F907B9F7089520910B012223C1F01A
:1007E0002091E60127FF14C0E62FE695E695E695F1
:1007F000EE31F8F4E80FF92FF11D677021E030E0D9
:1008000001C0220F6A95EAF78281822B82830895C4
:10081000FC0132962FEF30E04191641751F02F3FE9
:1008200019F4411101C0232F3F5F3630A9F72F3F44
:1008300009F40895820F911D27FD9A95FC016283AA
:1008400008952091E3013091E4012817390771F0F0
:100850009093E4018093E301E091E101F091E201E2
:10086000309721F00084F185E02D099408952091BE
:10087000DF013091E0012817390771F09093E00112
:100880008093DF01E091E101F091E201309721F0E6
:100890000680F781E02D09940895E091E101F0913F
:1008A000E201309721F00190F081E02D099480E081
:1008B0000895FA01811101C0FB0109948091DA01C8
:1008C000982F9E7F29F4817082608093DA010895C9
:1008D0008E31E8F381708C61F8CFAF92BF92CF92E6
:1008E000DF92EF92FF920F931F93CF93DF938901D3
:1008F000E42FF0E0E350FE4F611115C09491392FC1
:10090000E92FD8011196EC9311979C9312963C9382
:10091000DF91CF911F910F91FF90EF90DF90CF90DB
:10092000BF90AF900895C82FD0E0E62EF12CE4914F
:100930004E2FAE2EB12CCE0166E070E00E94BE1E9E
:10094000CC24CA94D12CB6010E94CF1EDB01CC0F5F
:10095000DD1FCB0165E570E00E94BE1EC81BD90BF0
:100960008C2F880FC80FC6018E199F09B5010E94F0
:10097000BE1E392FD0E0CE01B7010E94BE1E692FE6
:1009800070E0C601861B970BB5010E94BE1E292F81
:10099000C6018C1B9D0BB7010E94BE1E692F70E023
:1009A000C601861B970BB5010E94BE1E892FA2307F
:1009B000B10589F040F4109709F4A3CF119779F0AD
:1009C000932F322F9ECFA430B10561F078F01697A7
:1009D00009F497CFF5CF9E2FE32F382F92CF9E2F7C
:1009E000E22F8FCF932F3E2FE82F8BCFE32F342F83
:1009F000922F87CF80E00895CF93ADE3B1E050E030
:100A000040E080E061E070E09D919F3FA9F0E92F18
:100A1000E295EF70F0E020A130E09F7002C03595C4
:100A200027959A95E2F720FD39C09B01042E01C05D
:100A3000220F0A94EAF7822B4F5F5F4F4330510534
:100A400019F79091C601C1E0981301C0C0E0981752
:100A500039F18093C60181E08093C4010E94B603FE
:100A60009093C3018093C2012091C2013091C301D0
:100A70004FB7F8948091190290911A02A0911B022D
:100A8000B0911C024FBF821B930B039768F08091BB
:100A9000C6018093CB011092C40106C020E0CBCFE9
:100AA0008091C4018111E0CF8C2FCF910895909156
:100AB000E60192FF06C0282F28712830F9F4877FBD
:100AC000846093FF06C0282F28712831F1F4877EB7
:100AD00084612091E70120FF06C0382F387138303B
:100AE000D9F4877F816021FF06C0282F2871283123
:100AF000D1F4877E816194FD877E0895282F24712B
:100B00002430F9F68B7F8860DCCF282F24712431C4
:100B100001F78B7E8861DDCF382F3171313019F7C5
:100B20008E7F8860E0CF282F2171213121F78E7EC2
:100B30008861E1CFCF93DF93EC0182389105A9F171
:100B4000D8F58133910509F496C048F589329105AD
:100B500009F48AC08A9709F495C0C11522E5D20725
:100B600008F0B6C0C11531E5D30708F02BC1C83E67
:100B7000D10508F09CC0C03ED10560F5C83AD1054A
:100B800008F087C0C53AD10508F0F2C0C130D105E0
:100B900009F12097F9F0C430D105E0F440C0853365
:100BA000910509F45AC0C997C1F68091E601837096
:100BB00089F0C0EED0E00EC0833E910599F170F44B
:100BC000803E910501F1823E910539F68091E60162
:100BD00082FD21C0CE01DF91CF910895863E91051F
:100BE00061F1873E910571F1843E910509F0B5CF21
:100BF0008091E70181FFEECF8091E601C7EED0E062
:100C000084FD0DC0E7CF8091E60180FD0FC190917A
:100C1000E70190FFDFCFC3EED0E084FFDBCFD0E071
:100C2000C0E0D8CF8091E60182FD03C19091E70139
:100C300090FDBFCF84FFCECFF2CF8091E60183FD40
:100C4000DDCFC8CF8091E60183FDF6C09091E7012A
:100C500091FFF0CFC4EED0E0BDCF8091E60185FFDB
:100C6000B9CFC9E2D0E0B6CF8091E60185FFB2CF1F
:100C7000C5E3D0E0AFCF8091E60186FFABCFCAE2FB
:100C8000D0E0A8CF8091E60186FFA4CFC1E3D0E0F9
:100C9000A1CFCF3BD10518F6C85AD0E0CC0FDD1F4D
:100CA000C15FDE4F0990D881C02DD46493CFC115A8
:100CB00040E5D40708F067C0C11580E4D80708F004
:100CC0005FC0CE019A9581159F4108F483CFA7CFCD
:100CD000C11536E5D30730F5C11545E5D40708F051
:100CE0008CC0C11584E5D80708F082C09C2F96956A
:100CF00096959E0123703327C115D34508F467C02C
:100D0000C1E0D0E002C0CC0FDD1F2A95E2F7892FA9
:100D100090E075E0880F991F7A95E1F7C82BD92BE1
:100D2000DA6858CFC1158AE5D80778F4C11529E5E6
:100D3000D20708F06DC0C11538E5D30708F46FCFAE
:100D4000DC2FCC27C06FD06A45CFCE0190568115DD
:100D5000904208F064CF8D2F8F710E94570590E06C
:100D6000982F882788279F719C012C2BE9014EC062
:100D7000C55AD0E0C45FDE4FC881D0E0D0642ACF2E
:100D8000DF70D06A27CFCE01A4E096958795AA950B
:100D9000E1F783702C2F26952695237030E0B5E07F
:100DA000220F331FBA95E1F7382B8C2F8370C1E0E7
:100DB000D0E002C0CC0FDD1F8A95E2F7C22BD32B07
:100DC000DC6808CFDC2FCC27C16FD06A03CFC1E02D
:100DD000D0E002C0CC0FDD1F2A95E2F7892F90E00A
:100DE000E5E0880F991FEA95E1F7C82BD92BE8CFEA
:100DF000DC2FCC27C46FD06AEDCE8C2F0E94570514
:100E0000C82FD0E0DC2FCC27CC27DF71D062E2CE18
:100E10008C2F8F700E94570534E0D695C7953A9570
:100E2000E1F7CF709C2FEC01D069D4CEC9E3D0E0BC
:100E3000D1CEC2EED0E0CECEC6EED0E0CBCE809109
:100E4000C00181111092C00108958091BF0190915D
:100E5000BE01892B9091BD01892B809360019091F7
:100E6000C0019923A1F0892B8093600180910B012F
:100E7000882341F18091E60187FF24C08EE1E2E6FC
:100E8000F1E090E0815000F591110E941F07E09180
:100E9000E101F091E2013097E1F080910B018823AC
:100EA00059F08091E60187FF07C08091600180932F
:100EB000610185E0809360010280F381E02D80E68E
:100EC00091E0099486E0DBCF21912223D9F29F5F44
:100ED000D9CF08958091BB0190918A01981301C0E8
:100EE00008958F5F8770FACF292F220F920F890FF5
:100EF000A82FA77086958695869590E063E070E0B0
:100F00000E94BE1EFC01EF57FE4F50E040E080E023
:100F1000219130E00A2E02C0369527950A94E2F717
:100F200021703327042E01C0220F0A94EAF7822B86
:100F30004F5F5F4F4330510559F70895CF93DF93CB
:100F4000362F292F220F920F890F982F9770E1E0EB
:100F500001C0EE0F9A95EAF786958695869590E002
:100F600063E070E00E94BE1EDC01AF57BE4F50E050
:100F700040E0632F70E08D91ED0121979B01042EDD
:100F800002C0369527950A94E2F72170219528270B
:100F90002E23282728834F5F5F4F4330510559F791
:100FA000DF91CF91089590E080E00E94370490E0B7
:100FB00080E00E9421041092BE011092BD010C94A9
:100FC0002507809320020C94D30780912002982F4C
:100FD0009670963019F488600C94E107877FFCCFF7
:100FE00021E030E001C0220F8A95EAF72095809138
:100FF000200282230C94E1079091BC018095892303
:101000008093BC01282F277039F4282F082E000C5C
:10101000330B9217130621F49091E70192FF07C05A
:101020008595859585950E94F0071092BC010895DD
:1010300021E030E001C0220F8A95EAF7809120027A
:10104000822B0C94E1078093C1010C94D307882371
:1010500041F080959091BF0189238093BF010C944A
:1010600025070895882339F09091BF01982B90931C
:10107000BF010C9425070895882379F19CEF980F00
:10108000913A38F4682F80E691E00E94C2030C94F4
:10109000250790E2980F983088F4877021E030E0BF
:1010A000A90102C0440F551F8A95E2F7CA01809535
:1010B0009091BF0189238093BF01E9CF9BE5980FF1
:1010C000933020F490E080E00C943704885A873104
:1010D00020F490E080E00C9421040895CF93C82F71
:1010E000882309F467C08CEF8C0F813AC0F580919A
:1010F0000B01882311F18091E60187FF1EC0EC2FC0
:10110000E695E695E695F0E0E05AFE4F828190E0A4
:101110004C2F477021E030E002C0220F331F4A9568
:10112000E2F782239323892B91F06C2F80E691E0E4
:101130000E94C2030E9425070AC0E2E6F1E088E6A9
:1011400091E02191C21789F38E179F07D1F76C2F79
:1011500080E691E00E94EC03CF910C94250780E299
:101160008C0F883068F4C77021E030E001C0220F96
:10117000CA95EAF78091BF01822B8093BF01ECCF23
:10118000EBE5EC0FE33040F4F0E0E45FFE4F8081EC
:1011900090E0CF910C943704C85AC73158F4EC2F23
:1011A000F0E0EE0FFF1FE15FFE4F80819181CF9154
:1011B0000C942104CF91089590910F02943029F559
:1011C0008093E8017093EA016093E9019093E9004C
:1011D0008FEF9091E800815095FD06C095ED9A95AE
:1011E000F1F700008111F5CF8091E80085FF0DC077
:1011F00050E040E063E070E088EE91E00E94DA02A7
:101200008091E8008E778093E8000895BC0184E027
:101210000C94DC08BC0183E00C94DC08CF93DF93D2
:10122000EC0180910B018823B1F18091E60187FFE9
:1012300032C060E284E08093E9008FEF9091E80093
:10124000815095FD06C095ED9A95F1F7000081114A
:10125000F5CF8091E80085FF1BC080910B0170E005
:1012600050E040E0811104C050E040E068E070E0F0
:10127000CE010E94DA028091E8008E778093E80028
:1012800080E2FE01ADEEB1E001900D928A95E1F7AA
:10129000DF91CF91089568E081E0CDCF8091DA01B0
:1012A00080FD0CC01092D5011092D4011092D6018D
:1012B0001092D8011092D7011092D901239A35B11A
:1012C000377F25B128604FB7F89484ED91E0FC0199
:1012D0005191CF0168E025B9000000C057FF35B932
:1012E000550F000000C000C000C035B900C06A95AD
:1012F00091F7F1E08A3D9F0751F74FBF8FE594E0EA
:101300000197F1F700C0000008950F931F93CF934A
:10131000DF93EC010091DD011091DC0124ED31E05F
:10132000402F612F8C810E946D048C8127ED31E06C
:10133000402F612F81580E946D040E944E099A81AE
:101340008C8190FF07C08F5F8C83DF91CF911F91BD
:101350000F9108958150F8CF9091DA0190FF0EC05F
:101360008093D5016093D4014093D6018093D80136
:101370006093D7014093D9010C944E090895CF93FF
:10138000DF9300D00F92CDB7DEB79091DA0190FFD6
:101390000AC09E012F5F3F4F0E946D044B816981FF
:1013A0008A810E94AC090F900F900F90DF91CF912E
:1013B0000895CF93DF93EC01EAEDF1E04381628180
:1013C0008C810E94BF098C818F5F8C83DF91CF91CC
:1013D0000895CF93DF93EC01EC81F0E0E350FD4FF3
:1013E0004491EAEDF1E0628181810E94BF098C8124
:1013F0008F5F8C83DF91CF9108951F93CF93DF93FD
:10140000182FD0E0C0E0893311F4C0E5D0E0812F7F
:101410000E946E08209731F4812FDF91CF911F91A8
:101420000C943C088FE99FE00197F1F700C00000A1
:101430002197F0CF0F931F93CF93DF93C62FD42F15
:10144000022FFC0182818823A1F060931F020E9479
:10145000B60390931E0280931D02C77081E001C005
:10146000880FCA95EAF7DF91CF911F910F910C94E5
:10147000320880911F02681340C020911D023091F4
:101480001E024FB7F8948091190290911A02A09110
:101490001B02B0911C024FBF821B930B883C91052D
:1014A00060F510E21D0F6D17B9F080E2860F8830ED
:1014B00040F4C77081E001C0880FCA95EAF70E9426
:1014C0002708183048F481E09D2F977001C0880FDD
:1014D0009A95EAF70E943208802F0E94FD09183081
:1014E00098F4D77081E001C0880FDA95EAF7DF91B0
:1014F000CF911F910F910C942708C77081E001C014
:10150000880FCA95EAF7F3CFDF91CF911F910F9122
:101510000895CF93DF93C5E4D0E060E0CE010E9450
:10152000111F2196C11584E0D807B9F7DF91CF913B
:101530000895AF92BF92CF92DF92EF92FF920F93F6
:101540001F93CF93DF938DEFC82E83E0D82E0DE24B
:1015500010E0E80126977601F701A590B4906B2D75
:10156000CE010E94111F6A2DCE0101960E94111F0B
:1015700082E0E80EF11C2296C017D10769F786E0D9
:10158000C80ED11C8E010A5F1F4F0B34110509F7DD
:10159000DF91CF911F910F91FF90EF90DF90CF904F
:1015A000BF90AF900895CF93C82F6FEF811162E283
:1015B00083E290E00E94111FC1110CC0CFEF6C2F8D
:1015C00084E290E00E94111F6C2F85E290E0CF91A1
:1015D0000C94111FC3E0F3CF80E00E94D30A60E0B7
:1015E00086E290E00E94111F0E94990A0E94890AD7
:1015F00081E00C94D30ACF93C92F682F84E090E048
:101600000E94111F6C2F82E290E0CF910C94111F69
:101610009091E70192FB222720F9281751F080FBD7
:1016200092F99093E7018091E6019091E7010C9483
:10163000FB0A08950F931F93CF93DF93282F862FD4
:1016400090E066E070E00E94BE1EC42FD0E0CC0F98
:10165000DD1FC80FD91F822F90E066E070E00E9466
:10166000BE1EC80FD91FCE0187960E94FD1E082FEF
:1016700010E0102F0027CE0188960E94FD1E9801D1
:10168000282BC901DF91CF911F910F910895462F0B
:10169000853038F4711105C0633018F460E00C94A3
:1016A0001A0B90E080E00895CF92DF92FF920F93A3
:1016B0001F93CF93DF936C01009120028091C101B1
:1016C000082BC7E0D0E010E0FC2EC8010C2E02C0B1
:1016D000959587950A94E2F780FD0CC02197A0F7B5
:1016E000F12C8F2DDF91CF911F910F91FF90DF9003
:1016F000CF900895B6018C2F0E94470B0E949A0547
:10170000019761F3EECFCF93DF93EC010E94540B6E
:10171000BE010E94470BDF91CF910C949A05FC010A
:10172000808191810E94830B292F2F7092959F7049
:1017300092509E3078F4E92FF0E0E95BF04E0C9483
:10174000E31E803F19F020F4883E20F481E00895E4
:10175000843FE1F380E00895883EC0F3813FD1F7F4
:10176000F5CF822F869586958695089583E290E041
:101770000E94FD1E823289F484E290E00E94FD1EE8
:10178000833059F485E290E00E94FD1E91E08330A1
:1017900009F090E0892F8170089580E0FCCFCF930D
:1017A00084E090E00E94FD1EC82F82E290E00E943B
:1017B000FD1E982F8C2FCF910895CF92DF92EF923C
:1017C000FF926B017C010E945E04B701A60188E0D4
:1017D00090E0FF90EF90DF90CF900C94231FEF925A
:1017E000FF920F931F93CF93DF9300D00F92CDB74B
:1017F000DEB7082FF62E142FE22E8091DA0180FF3B
:1018000028C0E82FE695F0E0E05CFE4F90819093D1
:10181000D2018E7F823039F59E012F5F3F4F802F9E
:101820000E946D044B8169818A810E94AC090093FA
:10183000DB01F092DC011093DD01EE2051F06091AC
:10184000DA017091DB018091DC019091DD010E9451
:10185000DD0B0F900F900F90DF91CF911F910F91A3
:10186000FF90EF900895923019F41091DD01DFCFD1
:10187000963019F40091DB01DACF9930C1F6FACF36
:10188000EAEDF1E0438128E0421B08F440E021E06A
:10189000628181810C94EF0BEAEDF1E0438128E055
:1018A000420F08F44FEF21E0628181810C94EF0B2D
:1018B000EAEDF1E0628128E0621B08F460E021E0DB
:1018C000438181810C94EF0BEAEDF1E0628128E025
:1018D000620F08F46FEF21E0438181810C94EF0BDC
:1018E000EAEDF1E0818121E04381628188500C942E
:1018F000EF0BEAEDF1E0818121E043816281885FB5
:101900000C94EF0B8091DE01882319F081508093B5
:10191000DE016091DA017091DB018091DC01909130
:10192000DD010C94DD0B8091DE01833018F48F5FB4
:101930008093DE016091DA017091DB018091DC011E
:101940009091DD010C94DD0B9091DA0190FF3DC088
:101950009170811129C092609093DA01662351F051
:101960006091DA017091DB018091DC019091DD01E1
:101970000E94DD0B6091DA01669570E041E050E075
:101980008AE091E00E94F01E892BA9F01092D30109
:1019900081E08093CF0120E04091DD016091DC0186
:1019A0008091DB010C94EF0B8F3010F09C61D4CF51
:1019B000880F982BD1CF81E08093D3010E94B6038A
:1019C0009093CD018093CC01E3CF08958091DA010B
:1019D0008695815009F48EE061E00C94A40C80910E
:1019E000DA0186958F5F8F3008F081E061E00C941A
:1019F000A40C9091DA0190FF07C09695981720F0FB
:101A0000961710F40C94EF0C61E00C94A40CEAED22
:101A1000F1E08DE0808311828FEF828383831482D3
:101A200060817181828193810C94DD0B90E080E074
:101A30000E940B1F893E9E4F11F40C94B60B80E060
:101A4000089569EE7EEF90E080E00E942F1F60E035
:101A500082E090E00E94111F60E083E090E00E942D
:101A6000111F1092C10160E084E090E00E94111FFC
:101A700060E082E290E00E94111F60E085E090E06B
:101A80000E94111F60E086E090E00E94111F6FEF3E
:101A900087E090E00E94111F40E050E0BA0188E02A
:101AA00090E00E94231F60E08DE090E00E94111FF3
:101AB00040E050E0BA0188E190E00E94231F60E01E
:101AC00087E190E00E94111F40E050E0BA018CE1F4
:101AD00090E00E94231F70E060E080E290E00E94AE
:101AE0002F1F40E050E0BA0188E190E00E94231FE0
:101AF00080E00E94D30A0E94EC0A40E050E0BA0164
:101B00008FE090E00E94231F40E050E0BA0183E1A3
:101B100090E00C94231F1092BF0180910B01E2E62C
:101B2000F1E0882359F08091E60187FF07C08EE13C
:101B3000DF011D928A95E9F70C94D30786E0F8CF70
:101B40001F93CF93DF93CDB7DEB7AA970FB6F89464
:101B5000DEBF0FBECDBF81E192E02091F100DC013C
:101B60002D93CD01B2E089319B07B9F78091120224
:101B7000833009F46FC0B8F4813009F446C0823074
:101B800009F4B0C08091E80083FF38C18091110250
:101B9000909112029A3008F031C1E92FF0E0EB5A2F
:101BA000F04E0C94E31E8A3009F48BC08B3009F49C
:101BB0006EC0893039F780911102813219F7809116
:101BC000150290911602009711F00297D9F68091B4
:101BD000E800877F8093E8008091E80082FF35C0AD
:101BE0008091F200823029F48091F1008B7F813066
:101BF00021F48091F1008093EC018091E8008B77D3
:101C00008093E8000E940403BDCF80911102813AC5
:101C100009F0B8CF8091E800877F8093E800809139
:101C2000150290911602892B61F460E28DEE91E02D
:101C300070E00E9455038091E8008B778093E80064
:101C4000A1CF60E090E080E0F3CF80910F0281119E
:101C5000C3CF98CF80911102813A09F093CF809140
:101C6000150290911602892B09F08CCF8091E80023
:101C7000877F8093E8008091E80080FFFCCF80910F
:101C80000B018093F1008091E8008E77B9CF8091AD
:101C90001102813209F076CF8091150290911602DF
:101CA000892B09F06FCF8091E800877F8093E8004F
:101CB0000E9404038091130280930B010E948B0DFC
:101CC00061CF80911102813209F05CCF8091E800F0
:101CD000877F8093E8000E94040380911402809320
:101CE000EB0150CF80911102813A09F04BCF8091E6
:101CF000E800877F8093E8008091E80080FFFCCFB8
:101D00008091EB01BECF803899F0823809F076C01F
:101D1000809115028F70853008F070C08093E900C3
:101D20008091EB0085FB882780F91092E90006C0BE
:101D300080910D0290910E02911182609091E800C5
:101D4000977F9093E8008093F1001092F1008091CA
:101D5000E8008E77B4C1882309F4A1C1823009F06C
:101D60004DC0809113028111A5C1809115028F7021
:101D70002FEF280F243008F041C08093E900209114
:101D8000EB0020FF97C1933031F48091EB0080622B
:101D90008093EB008FC19091EB0090619093EB00EA
:101DA00021E030E001C0220F8A95EAF72093EA0093
:101DB0001092EA008091EB008860EACF81111EC08A
:101DC000109113021F778091E3008078812B80931C
:101DD000E3008091E800877F8093E8000E9404037D
:101DE0008091E80080FFFCCF8091E30080688093C1
:101DF000E30082E0111183E080930F028091E800FC
:101E000083FF0AC08091E800877F8093E80080917B
:101E1000EB0080628093EB00AA960FB6F894DEBFC9
:101E20000FBECDBFDF91CF911F91089580588230B2
:101E300028F720911302309114022C3DE3E03E0775
:101E4000A1F583E08A838AE289834FB7F894DE01A3
:101E5000139620E03EE051E2E32FF0E0509357006C
:101E6000E49120FF03C0E295EF703F5FEF708E2F8B
:101E700090E0EA30C0F0C7968D939D932F5F243198
:101E800059F74FBF8091E800877F8093E8006AE2AE
:101E900070E0CE0101960E9455038091E8008B7797
:101EA0008093E800ABCFC096E7CF80911502909168
:101EB0001602432F55274330510509F44AC078F5DF
:101EC0004130510509F47AC08BE590E0EBE1F4E094
:101ED0004230510509F092CF2091E800277F2093EE
:101EE000E80020911702309118028217930708F436
:101EF0009C0140E02115310509F065C0411163C026
:101F00008091E80082FDC9CF80910F02882329F2D9
:101F1000853019F28091E80083FFF2CFBECF4132C5
:101F2000510509F43CC04232510509F067CF8330B6
:101F3000910508F063CFFC01EE0FFF1FEE5AFE4F34
:101F40000190F081E02D815B9E4FDC018C9190E04F
:101F50001AC0332721303105D1F02115310561F048
:101F60002230310509F04ACFE8E8F4E0E4918E2F01
:101F700090E0E8E8F4E007C0ECEBF4E0E4918E2FA9
:101F800090E0ECEBF4E0009709F438CFA5CFEEEA4F
:101F9000F4E0E4918E2F90E0EEEAF4E0F4CF8330A9
:101FA000910508F02BCF880F991FFC01E85AFE4FCE
:101FB0000190F081E02D89E090E08ECF82E190E009
:101FC000E6E7F4E089CF80910F02882309F465CF1A
:101FD000853009F462CF8091E80083FD5ECF809167
:101FE000E80082FD8DCF8091E80080FF83CF809153
:101FF000F20090E02115310519F08830910550F07C
:1020000041E0089709F040E08091E8008E778093E6
:10201000E80070CF44914093F1003196215031098E
:102020000196E8CF803809F0E9CE8091E800877FFB
:102030008093E800809110028093F10088CE811196
:10204000DDCE10911302123008F0D8CE8091E80056
:10205000877F8093E800109310020E9404031123ED
:1020600011F084E005C08091E30087FDFACF81E0A4
:1020700080930F0242E061EC81E00E94230342E280
:1020800061EC84E00E94230342E261EC82E00E9462
:10209000230342E260EC83E00E942303AFCE8091F1
:1020A0001302813009F0AACE81E0933009F080E07C
:1020B00080930E021092E9008091E800877F809360
:1020C000E8000E9404039ACE4F925F926F927F9233
:1020D0008F929F92AF92BF92CF92DF92EF92FF9238
:1020E0000F931F93CF93DF9300D000D00F92CDB703
:1020F000DEB78C01FC0183819481892B31F08081D2
:10210000918189238F3F09F07FC50F900F900F9029
:102110000F900F90DF91CF911F910F91FF90EF9053
:10212000DF90CF90BF90AF909F908F907F906F90F7
:102130005F904F9008950E94540BF82E682F89816C
:102140009A810E949E0769817A818F2D0E94470B98
:102150007C01F8018281882309F449C59701225145
:102160003F452031310508F015C58FEF93E00E94FF
:10217000FD1EFEEEEF0E45E4842E912C882379F1AE
:102180008091BC01877009F4C0CFF8018281882357
:1021900009F4BBCF82E00F900F900F900F900F903B
:1021A000DF91CF911F910F91FF90EF90DF90CF9033
:1021B000BF90AF909F908F907F906F905F904F9067
:1021C0000C94FC07811424E09206D1F2C4010E9411
:1021D000FD1E811101C0EA943FEF831A930AE110BA
:1021E000F1CF1C821B824424439474016FEFE61AE2
:1021F000F60AC4010E94FD1E89831A82882309F40D
:10220000BFCF9FEF980F933000F58A83498272E029
:10221000870E911CC7010E94FD1E8B83882309F441
:10222000AFCFCE0101967C01F70120812223E9F294
:10223000213009F04AC091818281913041F4F2E06D
:10224000EF0EF11C0E94FD0909C04701EACF923050
:1022500049F422E0E20EF11C0E946E083FEFE31AFF
:10226000F30AE2CF933031F432E0E30EF11C0E9426
:102270003C08F4CF943021F06FEFE61AF60AEECF67
:1022800072E0E70EF11C50E040E0D7011196F70133
:10229000D180682F6053770B9B016A30710550F035
:1022A00041505109D8F28FE99FE00197F1F700C042
:1022B0000000F6CFCA016AE070E00E94BE1EA901CC
:1022C000480F591F8D2D7D01E0CFE22FF0E0ED5832
:1022D000FE4F5490822F86958695869590E0FC015E
:1022E000ED59FE4F64902770712C022E02C0759438
:1022F00067940A94E2F7E1E06E227724FC01ED5A3C
:10230000FE4FA490B12C022E02C0B594A7940A945B
:10231000E2F7F1E0AF22BB24FC01ED5BFE4FC4907D
:10232000D12C02C0D594C7942A95E2F721E0C222AD
:10233000DD246114710419F081EE0E946E08A1146D
:10234000B10419F086EE0E946E08852D0E94FD09E9
:10235000AB2819F086EE0E943C08672819F081EE40
:102360000E943C08CD2809F479CF8CE26BCF81E044
:102370000E9418080E94E50703CF81E00E94F00741
:10238000F9CF82E0F5CF25EFE2162CE5F20609F44D
:102390005CC008F456C066EFE6166CE5F60609F474
:1023A00058C0882309F441C410921F0272E0E71656
:1023B0007CE5F70608F446C186E1E8168CE5F806E8
:1023C00030F0C7018A5F9C45099708F03BC10E9425
:1023D000CF0B9093E7018093E60190E1E9169CE52D
:1023E000F90609F4FEC008F079C0F8E0EF16FCE544
:1023F000FF0609F4E8C008F049C034E0E3163CE504
:10240000F30609F4D8C060F572E0E7167CE5F7063C
:1024100009F4C7C083E0E8168CE5F80609F4C7C0E4
:102420008091E6019091E7010E94FB0A0E948B0DCA
:10243000A7CE27E245EE65EED6C326E241EE60EE7A
:10244000D2C327E245EE64EECEC326E241EE62EE51
:10245000CAC327E245EE66EEC6C328E241E0EBCFF1
:102460008091E601806196E0E9169CE5F90609F4A1
:102470009BC08091E6018860E7E0EE16ECE5FE0681
:1024800008F492C08091E60180628EC08091E601DE
:102490008D7FFCE0EF16FCE5FF0609F485C078F4BB
:1024A0008091E6018C603AE0E3163CE5F30609F41E
:1024B0007BC008F48CC08091E6018E7F75C080914E
:1024C000E601877F7EE0E7167CE5F70609F46CC03D
:1024D00008F483C08091E6018F7E66C09BEFE91609
:1024E0009CE5F90609F46BC068F5F3E1EF16FCE52D
:1024F000FF0609F47EC090F431E1E3163CE5F306F3
:1025000009F473C062E1E6166CE5F60609F088CFBF
:102510000E948B0D8091E6018F7746C075E1E7162A
:102520007CE5F70609F46DC008F481C08091E701ED
:1025300081609AEFE9169CE5F90609F071CF809366
:10254000E7016ECFEFEFEE16ECE5FE0609F455C09D
:10255000A0F48091E7018D7F2DEFE2162CE5F206C5
:1025600071F38091E7018E7F3EEFE3163CE5F306C1
:1025700030F38091E7018360E2CF61E0E6166DE51C
:10258000F60609F45DC008F448C060E082E0E81691
:102590008DE5F80609F044CF8EE090E00E94111F0F
:1025A0003FCF8091E60181608093E60139CF809131
:1025B000E6018260F9CF8091E6018460F5CF8091D9
:1025C000E7018260BCCF8091E6018064EDCF0E947C
:1025D0008B0D8091E6018068E7CF8091E6018B7FCB
:1025E000E3CF8091E6018F7DDFCF8091E6018F7B85
:1025F000DBCF8091E601837FD7CF8091E7018C7F8D
:102600009ECF8091E60182FB992790F921E09227E5
:1026100090FB82F990FB83F9C7CF8091E701982F57
:10262000909591708E7F892B90FB81F988CF0E94C5
:102630008B0D9091E601892F97FB87F98058B4CFD5
:1026400061E0AACF8091BF0196E1E9169CE5F90609
:1026500009F0FAC28A7A91E009F490E0909380013F
:1026600069E2811165E380E691E00E94EC030E943B
:10267000250786CD8091DA0180FF1BC08E7F809375
:10268000DA016091DA017091DB018091DC019091B7
:10269000DD010E94DD0B1092D301EFEFF0E722E0A5
:1026A000E150F0402040E1F700C000000E944E09D8
:1026B00067CD81608093DA0161E086950E94A40C69
:1026C0005FCD46EE5CE06FEE7CE00E94590458CD91
:1026D0004FEE5CE066EE7CE0F8CF40E75CE069E757
:1026E0007CE0F3CF49E75CE060E77CE0EECF48E5D3
:1026F0005CE064E67CE0E9CF44E65CE068E57CE031
:10270000E4CF4CE45CE060E47CE0DFCF42E85CE0F6
:1027100063E97CE0DACF43E95CE062E87CE0D5CFB6
:1027200061E081E0CBCF68E086E03AC39BE5E91643
:102730009DE5F90609F444C0ECE5EE16EDE5FE066C
:1027400009F0B4C28091E70182FB882780F991E00B
:1027500089270E94080BAAC20E948B0DFFEF24E379
:102760003CE0F15020403040E1F700C0000081E043
:102770008093E00080E28093D8001092C9008FE13E
:102780009EE40197F1F700C0000087E090EBDC01C8
:102790008093210290932202A0932302B0932402FB
:1027A00088E19CE00FB6F894A895809360000FBE76
:1027B00090936000FFCF0E94210DE2CC81E0C9CF51
:1027C00080E0C7CFC7010E947407D82E7EC22F2D8C
:1027D0002F70C22E8F2D807F19F0C29490EFC922E6
:1027E000DD20C9F0CC2069F080E28E0D883010F039
:1027F00081100BC08091BF01C82AC092BF010E9406
:1028000025078E2D0E946E0819C08091BE01C82A2E
:10281000C092BE01F4CF8E2D0E943C08CC2071F0F6
:10282000C09480E28E0D883010F081103CC0809101
:10283000BF01C822C092BF010E942507692D6850C0
:10284000770B6430710510F40E944D04AA2009F43E
:102850005CCC8091BC0180FD58CCF801128285953A
:10286000859585950E941808C8010E946410809182
:10287000BC018595859585950F900F900F900F90D1
:102880000F90DF91CF911F910F91FF90EF90DF900C
:10289000CF90BF90AF909F908F907F906F905F9000
:1028A0004F900C94F0078091BE01C822C092BE01E7
:1028B000C3CF3F2D3F70B32E8F2D807F803219F014
:1028C000B29480EFB822882071F061E0861681F121
:1028D000DD20D9F1CC2091F1F801858180FF91CFE5
:1028E0008F7085832BC0DD20B1F09091C0018B2DBE
:1028F000892BC11003C00E943208A0CF71E0C7121B
:10290000FACF2091E70122FD99CF981709F496CFCD
:102910008093C00193CFC11006C00E941F078B2D6A
:102920000E9427088BCF81E0C81609F487CFF5CF26
:10293000DD2031F095E09C1508F480CF8B2DDBCFA6
:10294000E4E0EC1508F47ACFEACFCC2041F3F9E3C8
:102950008F1209C02FEF37EE63E021503040604006
:10296000E1F700C000008E2D0E943C0867CF8F2D3C
:1029700086958695837061F0813009F05FCFC7013D
:102980009370D11002C090E080E00E94210456CFE5
:10299000C7019370D11002C090E080E00E9437041C
:1029A0004DCF8F2D837091F5D11048CF4E2D42958C
:1029B00046954770440F440F8E2D8F70042E01C032
:1029C000880F0A94EAF72E2D2071E4FE07C02FE04D
:1029D00030E001C0220F4A95EAF720953F2D369549
:1029E00036953370323069F050F44091C101313086
:1029F00029F0822B84230E94230820CF842B822B52
:102A0000FACF282B8091C1018227F5CF8695DD2052
:102A100011F08F2D8170882309F410CF4E2D42952F
:102A200046954770440F440F8E2D8F70042E01C0C1
:102A3000880F0A94EAF72E2D2071E4FE07C02FE0DC
:102A400030E001C0220F4A95EAF720953F2D3695D8
:102A500036953370323069F050F4409120023130B5
:102A600029F0822B84230E94E107E8CE842B822B5D
:102A7000FACF282B809120028227F5CF7F2D7F70FF
:102A8000F72EDD2029F0872F0E9418088E2D33CFD6
:102A90008E2D0E9427088F2D0E94F007CFCE8E2DFD
:102AA00092EF891609F44AC0981570F0E0EF8E167F
:102AB00031F1F1EF8F16D1F1DD2009F45BC0C110C7
:102AC000A0CE8F2D8F7137C023EF8216E1F134EF46
:102AD0008312F2CFDD2009F442C08F2D8F71F82EC2
:102AE0000E9418088091E70182FD07C08F2D880F92
:102AF000880F880F83608093BC018F2D1CC0DD2060
:102B000081F064E06C1508F499CE2F2D2F7181E0CF
:102B100090E001C0880F2A95EAF79091200289275A
:102B2000A2CF75E07C1508F489CEEFCF8F2D8F7181
:102B3000DD2009F4B1CF0E94180880CE8F2D8F714F
:102B4000DD20C9F3A9CF80E0DD2009F48CCF9F2DD3
:102B50009F7181E001C0880F9A95EAF784CF81E0E8
:102B60000E94FC0791E09C1508F068CE82E00E946C
:102B7000FC0764CECC2059F0893309F0F4CEEFEF96
:102B8000F7EE23E0E150F0402040E1F7EACE8F2D50
:102B90008F7182CFF0E1EF16FFE5FF0609F4E7CB76
:102BA00021E1E2162FE5F20609F4EBCB63EFE6161E
:102BB0006CE5F60609F441CC08F0E5CB98EDE91692
:102BC0009CE5F90609F435CCE9EDEE16ECE5FE06D8
:102BD00009F443CCF7EDEF16FCE5FF0609F0E1CB75
:102BE00026E241EE61EEC8010E941A0AC9CA30E12C
:102BF000E3163FE5F30609F4C0CB61E1E6166FE5A5
:102C0000F606A1F682E0BACB85E0DE0111960190CE
:102C10000D928A95E1F7F801228189819A8121112B
:102C20008ACA0E947407F82E8ECAF6E1EF16FCE5F8
:102C3000FF06E1F58091800169E2811165E380E69C
:102C400091E00E94C20313CD82722AECE2162CE5B9
:102C5000F20609F456CD08F086C065ECE6166CE580
:102C6000F60609F43ACD08F065C093ECE9169CE548
:102C7000F90609F426CD08F02BCDF2ECEF16FCE5B1
:102C8000FF0609F4F7CC3AE5E3163DE5F30609F44F
:102C900095CD08F04BCDE1147CE5F70609F45CCD49
:102CA0008EEDE8168CE5F80609F485CDF8018281F1
:102CB000E080F180882309F485CDC7010E94540B80
:102CC000D82E682FC7010E949E07B7018D2D0E9444
:102CD000470B0E949A057C01882EF801D280C5809E
:102CE000C2943FE0C3228091BC018770A1F0AD2C5B
:102CF000DD2091F08F2D807F803421F080E28E0DD9
:102D0000883048F082E00E94FC078091BC01877007
:102D1000AA24A3948111A12C9F2C92942FE092229B
:102D2000FBE0F91508F48ACDE92DF0E0E15AF04E08
:102D30000C94E31E27ECE2162CE5F20609F4D7CC3E
:102D400008F4D0CC68ECE6166CE5F60609F4D4CCB1
:102D500079ECE7167CE5F70609F095CF40E45CE0F6
:102D60006CE47CE0B2CC9FECE9169CE5F90609F432
:102D7000DACCC8F4FCECEF16FCE5FF0609F4CBCC8A
:102D800008F4C4CC3DECE3163CE5F30609F4C8CCEA
:102D90006EECE6166CE5F60609F075CF65E082E0AC
:102DA0000E94F90CEDC976EDE7167CE5F70648F4CC
:102DB00081EDE8168CE5F80608F0E2C96EE089E0DE
:102DC000EFCF9DE5E916F90609F4DAC95CCF1F9348
:102DD000CF93DF9380918901807FA1F48091860158
:102DE000882381F02091BB0110918A0140918401D8
:102DF000A0918501C0918701D0918801B42FBA2399
:102E0000121304C0DF91CF911F91089530E02097F5
:102E100011F0BF3F21F42F5F3F4F2770F1CFC90161
:102E200066E070E00E94BE1EFC01E557FE4F818106
:102E30008A13F1CF80818413EECF82818111EBCF91
:102E4000838194818C1B9D0B883C910520F7809198
:102E500089018F70806180938901C90166E070E00B
:102E60000E94BE1EFC01E057FE4F90819F70906152
:102E7000908384E891E00E946410DF91CF911F91CC
:102E80000C946A07AF92BF92CF92DF92EF92FF92BB
:102E90000F931F93CF93DF93CDB7DEB761970FB634
:102EA000F894DEBF0FBECDBF8C0185E0F801DE01D6
:102EB0001D9601900D928A95E1F7D8011296EC903B
:102EC000129784E8A82E81E0B82E60918701709156
:102ED00088016115710509F438C190918401209130
:102EE0008501892F82238F3F09F42FC14C911196C0
:102EF000EC9111971396CD90DC90F0908601D6015D
:102F0000A61BB70BFF2009F4EBC080918901382F75
:102F1000307FA83CB10508F0AEC031117AC0FE2C5C
:102F20002E1321C094131FC0E1101DC08F7080614B
:102F300080938901C5010E94641080918901F80184
:102F400085838F2D61960FB6F894DEBF0FBECDBF7F
:102F5000DF91CF911F910F91FF90EF90DF90CF9075
:102F6000BF90AF900895CD2829F0842F8E238F3FF6
:102F700009F006C180E0F82FF170DF2E2091BB012F
:102F8000F0918A0180FD21C0EE20D9F28091890163
:102F9000816080938901F12CD4CF30E0C90166E0D3
:102FA00070E00E94BE1EDC01A557BE4F11968C91A9
:102FB0001197E81307C08C91481304C012968C91A6
:102FC000E812E2CF2F5F3F4F27702F13E6CF4D87D8
:102FD000EE878D859E850E94830B292F22952F7069
:102FE000223058F0243080F49F7059F0D8011596A3
:102FF0009C91907F31F4D12C0AC09F7011F08823EE
:10300000D1F3805E8830B8F3C8010E946410FD2CB3
:1030100098CF2E1306C0941304C0F801EE2009F4D3
:1030200079C0C8010E948F0B882309F1EE20F9F0C6
:1030300080918901803270F0209184013091850166
:1030400038872F831986DB86CA868C87CE01079640
:103050000E94641086E0F801A4E8B1E001900D92AE
:103060008A95E1F70E94E716FF24F3946ACFC8011E
:103070000E946410F9CF31110AC084E891E00E94E7
:10308000641086E0D5011D928A95E9F784CF2E134E
:103090000FC094130DC0E1100BC0F8018583C80167
:1030A0000E94641086E0D5011D928A95E9F749CF08
:1030B000C8010E948F0B8823D1F2EE20C1F28091CB
:1030C0008901803238F220918401309185013A8360
:1030D00029831B82DD82CC828E83CE010196B8CFFC
:1030E000A83CB105F8F6FE2CEE2009F22E131FC005
:1030F00094131DC08091890180FD10C0982F907F8E
:1031000069F0F8018583903F31F0982F907F905FB0
:103110008F70892B8583C8010E94641086E0F801B6
:10312000A4E8B1E001900D928A95E1F70ACFC801B9
:103130000E948F0B81118ECF8091890181608093D5
:103140008901C8010E946410FCCEEE2009F48FCFE3
:10315000C8010E948F0BF82E882309F488CF86E0DF
:10316000F801A4E8B1E001900D928A95E1F7809111
:103170008401909185010E94830B0E94E716E1CEA5
:1031800081E08E25F8CECF93DF93CDB7DEB767977A
:103190000FB6F894DEBF0FBECDBF4B8B5C8B6D8B33
:1031A0007E8B8F8B61111092BE011A8A198A85E07D
:1031B000FE017396DE011D9601900D928A95E1F74E
:1031C00086E0FE013D96DE01179601900D928A95EC
:1031D000E1F7CE0107960E944217811112C086E0E6
:1031E000FE013796DE01119601900D928A95E1F766
:1031F0008A859B85892B29F08F81988589238F3F2C
:10320000B1F58091BB0190918A0189131CC067962A
:103210000FB6F894DEBF0FBECDBFDF91CF910895FA
:1032200066E070E00E94BE1EDC01A557BE4F96E02E
:10323000FE01319601900D929A95E1F720938A0153
:103240000E946A07DECF90E066E070E00E94BE1E3A
:1032500085579E4F0E9442178823C9F28091BB0177
:1032600090E00196877099278093BB01CACF809127
:103270008A0190E09C012F5F3F4F277033274091D8
:10328000BB014217130661F60E948B0D10928A0152
:103290001092BB0186E0E4E8F1E0DF011D928A951F
:1032A000E9F7AFCF1F920F920FB60F9211242F9311
:1032B0003F934F935F936F937F938F939F93AF93BE
:1032C000BF93CF93DF93EF93FF93D091E900DF702B
:1032D0008091EC00C82FC17080FDC0E81092E90019
:1032E0008091F000877F8093F00078940E94A00D79
:1032F0001092E9008091F00088608093F000CD2B5F
:10330000CF70C093E900FF91EF91DF91CF91BF9112
:10331000AF919F918F917F916F915F914F913F916D
:103320002F910F900FBE0F901F9018951F920F9224
:103330000FB60F9211242F933F934F935F936F9388
:103340007F938F939F93AF93BF93EF93FF9380915E
:10335000E10082FF09C08091E20082FF05C08091F8
:10336000E1008B7F8093E1008091E10080FF17C036
:103370008091E20080FF13C08091E2008E7F8093F5
:10338000E2008091E20080618093E2008091D800A9
:1033900080628093D80019BC85E080930F028091F1
:1033A000E10084FF29C08091E20084FF25C084E011
:1033B00089BD86E089BD89B5982F917080FFFBCFCC
:1033C0008091D8008F7D8093D8008091E1008F7E1E
:1033D0008093E1008091E2008F7E8093E2008091F3
:1033E000E20081608093E20080911002882309F45A
:1033F0003FC084E080930F028091E10083FF27C0EB
:103400008091E20083FF23C08091E100877F809359
:10341000E10082E080930F02109210028091E1009F
:103420008E7F8093E1008091E2008E7F8093E200A6
:103430008091E20080618093E20042E060E080E001
:103440000E9423038091F00088608093F000FF9138
:10345000EF91BF91AF919F918F917F916F915F910C
:103460004F913F912F910F900FBE0F901F90189585
:103470008091E30087FD93E090930F02BDCF789495
:103480001F921FB61F9211248F939F93AF93BF93E8
:103490008091190290911A02A0911B02B0911C0216
:1034A0000196A11DB11D8093190290931A02A09359
:1034B0001B02B0931C02BF91AF919F918F911F90FF
:1034C0001FBE1F9018951F921FB61F9211248F9335
:1034D0009F93AF93BF938091E501811113C08091B9
:1034E000190290911A02A0911B02B0911C02419600
:1034F000A11DB11D8093190290931A02A0931B0283
:10350000B0931C02BF91AF919F918F911F901FBEEE
:103510001F901895CDB7DEB7AA970FB6F894DEBF07
:103520000FBECDBF84B7877F84BF0FB6F894A89530
:1035300080916000886180936000109260000FBEEF
:1035400080E890E00FB6F89480936100909361005A
:103550000FBE8AEF94E090935F0180935E0110921A
:10356000E2001092E1008091E00081608093E00031
:103570008091D8008F778093D80019BC8091630028
:103580008160809363001092C501809163008E7FFB
:103590008093630081E08093C5011092E200109255
:1035A000E1008091D8008F778093D8008091D80077
:1035B00080688093D8008091D8008F7D8093D80058
:1035C00084E089BD86E089BD89B5282F2170622EEF
:1035D00080FFFACF10920F021092100210920E028A
:1035E00010920D0242E060E080E00E94230380918F
:1035F000E1008E7F8093E1008091E2008160809302
:10360000E2008091E20088608093E2008091E00017
:103610008E7F8093E0008091E20084608093E200DE
:10362000789480910F028823A1F01091E9001F7017
:103630009091EC00892F817090FD80E8182B1092FA
:10364000E9008091E80083FD0E94A00D1F70109397
:10365000E90082E084BD93E095BD9AEF97BD809329
:103660006E000E94B60B811102C00E94EC0AADE30D
:10367000B1E040E451E061E070E08D918F3F91F066
:10368000E82FE295EF70F0E011A18F709B0101C06F
:10369000220F8A95EAF7922F9095912391A382A108
:1036A000822B82A34A175B0741F71092C601109242
:1036B000CB010E94160D811102C00E94210D82E0F3
:1036C00090E00E94FD1E8093C9010E94CF0B909351
:1036D000E7018093E6010E94FC048FEB9DE50197D2
:1036E000F1F700C000000E94FC048091CB0180FF34
:1036F00003C081E00E94180883E090E00E94FD1E54
:103700000E9423088091C701811133C00E94160DC9
:10371000811104C00E94210D0E94070D88E090E0F5
:103720000E94051F6093DA017093DB018093DC0136
:103730009093DD016E7F71F40E94070D88E090E0A8
:103740000E94051F6093DA017093DB018093DC0116
:103750009093DD010E945E041092D3018091DA0102
:1037600080FF04C060E086950E94A40C81E08093F5
:10377000C7018091E60180688093E6018091E601AF
:103780009091E7010E94FB0A80E091E09093E201B2
:103790008093E101E8E1CE2ED12CF0E47F2EA4E06D
:1037A000BA2EB6E0AB2E80910F02853049F480919D
:1037B0000F02853009F4A0C00E948B0D0E944D04B9
:1037C0000E94FC04882359F08FB7F89440911902A5
:1037D00050911A0260911B0270911C028FBF909051
:1037E000CB018091CA018911CEC08FEF8EA38FA328
:1037F00018A60E94B6038160782F9AA789A74EA1C8
:103800005FA168A58AA50E94C3188091D30188236F
:10381000D1F18091D201E091DA01E695E81BE093C5
:10382000CE01823009F0DCC0F0E0E750FE4FE491B9
:103830000E2F10E079EEE72E79E0F72E8091CF0180
:10384000882361F01092CF010E94B6039093CD01BE
:103850008093CC011092D1011092D0010E94B60346
:10386000E091CC01F091CD018E1B9F0B8F3F9F47C4
:1038700050F40E0F1F1F1093CD010093CC018CEC60
:1038800091E0F70109950E944D049091C8018917B4
:1038900021F00E944D048093C80180910F02843072
:1038A00009F081CF83E08093E9008091E80082FFF6
:1038B0007ACF8091E80090E085FF0CC00E94A902B9
:1038C00030E2E32EF12C8E010F5F1F4F882309F4A5
:1038D000B3C091E08091E8008B778093E800992352
:1038E00009F461CFE981E150E33108F009C1F0E06A
:1038F000E559F04E0C94E31E80910F02843009F1DB
:103900001092E5010FB6F894A895C09260000FBE22
:103910007092600083B7817F846083BF83B78160CA
:1039200083BF7894889583B78E7F83BF0FB6F89452
:10393000A89580916000886180936000109260007B
:103940000FBE80910E02882309F431CF0E94FC043F
:103950008091CB01882309F42ACFB9BCA9BC09B452
:1039600000FEFDCF8091D8008F7D8093D80080919C
:10397000E00082608093E0008091E00081FDFCCF58
:103980000E948B0D14CFF82EF924162D00E0E12CA7
:103990008F2D8123E9F0E9A21AA291E0892D8123DC
:1039A00009F490E09BA30E94B6038160782F9DA349
:1039B0008CA349A15AA16BA18DA10E94C31880912B
:1039C000CA0181278093CA010F5F0C3008F01DCF18
:1039D000E394110F93E0E912DBCF011116CF05CF6D
:1039E000863059F4F0E0EA50FE4FE4910E2F10E0DB
:1039F00069EDE62E69E0F62E21CF00ED17E041EBF0
:103A0000E42E43E0F42E893009F018CFE695F0E07B
:103A1000ED50FE4FE4910E2F10E055E8E52E59E0F1
:103A2000F52E0CCF8091F100F80181938F01F1E028
:103A3000EF1AF10809F44DCF8091E80085FDF2CF2F
:103A40008091E8008B778093E8000E94A902882388
:103A500099F33FCF1A8289E08B831AC08A81823022
:103A600009F483C18330D9F1813009F049C02FB7FF
:103A7000F8946091190270911A0280911B02909142
:103A80001C022FBF0E94E91E6B837C838D839E8363
:103A900080910F02843009F086CE1091E9001F70EA
:103AA0009091EC00892F817090FD80E8182B82E0C6
:103AB0008093E9008091E80080FF0DC050E040E075
:103AC00060E270E0CE0101960E94DA028091E80087
:103AD0008E778093E8001F701093E90064CE809188
:103AE000CB01BACF8A81823059F46B817C818D8180
:103AF0009E810E94E91E86E290E00E94111FC8CFBD
:103B00008FEF8983C5CF4C816B818A810E941A0B0C
:103B10009827892798279E838D83BACF0D811E8190
:103B20001027012710278A8190E066E070E00E944C
:103B3000BE1E7C018B8190E066E070E00E94BE1E9C
:103B4000E80EF91E8C8190E0880F991FE80EF91E8F
:103B5000612FC70187960E94111F602FC7018896A9
:103B6000CCCF0E94990A94CF8A818138C1F060F449
:103B7000803809F08DCF20E04B816091DC0180918D
:103B8000DB010E94EF0B84CF823859F1833809F0B2
:103B90007FCF20E04091DD016C818B81F2CF60E02E
:103BA0008B810E94A40C9B818091DA01911111C03C
:103BB0008E7F8093DA011092D3012FEF80E792E09D
:103BC000215080409040E1F700C000000E944E0963
:103BD0005FCF81608093DA0160E086950E94A40C3B
:103BE00057CF8B818093DE0153CF8A81813899F042
:103BF00030F4803809F04CCF8091DD012DCF823830
:103C000091F0833809F044CF8091DB018B83809160
:103C1000DC018C833DCF8091DA0180FF02C0869564
:103C20001BCF80E019CF8091DE0116CF6091DA01C1
:103C30007091DB018091DC019091DD010E94DD0B30
:103C400027CF80E18A8324CF83E08A838BEB04CF64
:103C5000EA80FB80FE24EF24FE248E010F5F1F4FBD
:103C60008C80800E912E911CC7018B5B9F4F081595
:103C7000190509F40DCFEBEBEE16E3E0FE0650F468
:103C80000E94FD1EF8018483FFEFEF1AFF0A0F5F09
:103C90001F4FEACFF8011482F7CF0A811B8110274A
:103CA00001271027CE0101964C01EC80E00EF12E89
:103CB000F11CC8018B5B9F4F0E151F0509F4E8CE60
:103CC0000B3BE3E01E0720F4F40164810E94111F06
:103CD000FFEF8F1A9F0A0F5F1F4FEBCF0E94890AD9
:103CE000D7CE85E0AFCFEA80FB80FE24EF24FE2410
:103CF0008E010F5F1F4F8C80800E912E911CC7018B
:103D000087960815190509F4C3CE2EE1E216F104D1
:103D100050F40E94FD1EF8018483FFEFEF1AFF0AA2
:103D20000F5F1F4FECCFF8011482F7CF0A811B8180
:103D3000102701271027CE0101964C01EC80E00EE0
:103D4000F12EF11CC8018796E016F10609F4A0CE09
:103D50000E31110520F4F40164810E94111FFFEF60
:103D60008F1A9F0A0F5F1F4FEDCF86E290E00E94EF
:103D7000FD1E1B821C821D828E838ACE0024552745
:103D800004C0080E591F880F991F009729F07695D7
:103D90006795B8F37105B9F7802D952F0895AA1B83
:103DA000BB1B51E107C0AA1FBB1FA617B70710F026
:103DB000A61BB70B881F991F5A95A9F78095909558
:103DC000BC01CD010895EE0FFF1F0590F491E02D89
:103DD00009946927962769277827872778270895E0
:103DE000FC014150504030F001900616D1F7319758
:103DF000CF010895882799270895F999FECF92BD9C
:103E000081BDF89A992780B50895A6E1B0E044E015
:103E100050E00C94371FA8E1B0E042E050E00C9471
:103E2000371F262FF999FECF92BD81BDF89A0197D1
:103E300000B4021639F01FBA20BD0FB6F894FA9AF2
:103E4000F99A0FBE08950396272F0E94121F0E9411
:103E5000111F252F0E94121F242F0C94121F019650
:103E6000272F0E94121F0C94111FDC01CB01FC01B3
:103E7000F999FECF06C0F2BDE1BDF89A319600B4C3
:103E80000D9241505040B8F70895F894FFCFA10B20
:103E9000A10BAA0BAA0BAC0BAA0BAA0BAA0BA10B8A
:103EA000A10BB10BAA0BAA0BB10B830EAB0EFE0E2E
:103EB000AB0EFE0EDE0E160FFE0E12101F10E713D5
:103EC000E71359145914B7141E141E141E14D114D8
:103ED0003E154F154F152A1D2E1D721D831D8E1D5B
:103EE000B11DB41DF51D161E801D801D211E241E32
:0C3EF000281E4D1E6E1E711E731E961EB5
:103EFC00B3030E09B2030A0906090101818283E2A8
:103F0C0000E900EA00B500B600B700CD008301CC93
:103F1C00008A019201940121022302240225022627
:103F2C000227022A02B300B4006F00700034363747
:103F3C0000010202020206060609090909090940E4
:0E3F4C00226D0301E10074002D04460466049A
:00000001FF
