:100000000C94B5000C94ED000C94ED000C94ED00F4
:100010000C94ED000C94ED000C94ED000C94ED00AC
:100020000C94ED000C94ED000C94ED000C94460C37
:100030000C94020C0C94200D0C94ED000C94ED002B
:100040000C94ED000C94ED000C94ED000C94EE0C6F
:100050000C94ED000C94ED000C94ED000C94ED006C
:100060000C94ED000C94ED000C94ED000C94ED005C
:100070000C94ED001C061C064E064E06E207E20735
:10008000E207E207C0064E075F075F073D0A640A02
:10009000E00B640AE00BAC0ACF0AE00BA80BBB0B29
:1000A00005010906A101050719E029E71500250149
:1000B00095087501810295017508810105071900F0
:1000C00029FF150026FF009506750881000508190F
:1000D000012905950575019102950175039101C0EE
:1000E00009022200010100A0FA0904000001030135
:1000F00001000921110100012240000705810308C8
:1001000000011201000200000008554B0000010030
:100110000102000124036B007A00720074006E007B
:10012000200075006E006E0061006D0065006400C7
:1001300033006B007600320000000C036B007A0085
:10014000720074006E000000040309041D001B000F
:100150000600C45CC35C0250C65CC75C0350C85C4C
:10016000C95C0450CA5CCB5C005011241FBECFEFA9
:10017000D2E0DEBFCDBF04B603FE18C08091980167
:1001800090919901A0919A01B0919B018730904B79
:10019000A740B04B59F41092980110929901109217
:1001A0009A0110929B01E0E0F8E1099511E0A0E0CE
:1001B000B1E0E8E1FBE202C005900D92A031B10789
:1001C000D9F721E0A0E1B1E001C01D92A839B20742
:1001D000E1F70E942F130C948A150C9400009111E2
:1001E0001DC08330D8F4E7E1F1E040E050E0219118
:1001F00030E0082E02C0369527950A94E2F7217068
:100200003327042E01C0220F0A94EAF7922B4F5F86
:100210005F4F4430510559F7892F089580E00895C4
:1002200091111FC08330E8F421E001C0220F8A95AC
:10023000EAF7E7E1F1E040E050E070E03081CB0127
:10024000042E02C0969587950A94E2F781708195F5
:1002500083278223832781934F5F5F4F443051056B
:1002600069F70895A0E0B0E0E8E3F1E00C944F15E1
:100270007C0100918B0110918C01809184019091FF
:100280008501082B192BCFE0D0E0CC24C394D12CCE
:10029000C6010C2E02C0880F991F0A94E2F7802332
:1002A0009123892B21F4219798F7B12C09C0BC2EFA
:1002B000B7018C2F0E940C0E0E94230E019799F318
:1002C0008B2DCDB7DEB7E9E00C946B1590938C01C4
:1002D00080938B01109281010E9427100895CF9383
:1002E000DF93EC010E943201BE010E940C0E0E94BD
:1002F000230EDF91CF91089521E030E002C0220F5C
:10030000331F8A95E2F72095309580918B0190916B
:100310008C01822393230E946601089521E030E03E
:1003200002C0220F331F8A95E2F780918B019091D2
:100330008C01822B932B0E94660108959093850176
:1003400080938401109281010E9427100895CF9319
:10035000FC018081918123813481232B31F09F3FE7
:1003600031F491E08F3F19F403C091E001C090E0B7
:10037000C92FC17090FD1CC0808191810E946F01C6
:1003800092959F70963079F010F4925001C09A5077
:10039000923088F4803F71F018F4883E60F40AC00F
:1003A000843F49F407C0883E28F0813F21F402C011
:1003B000C0E001C0C1E08C2FCF910895109282015E
:1003C00086E0EAE3F1E0DF011D928A95E9F71092F9
:1003D00081010E94271008950E94DE012FEF84E31F
:1003E0009CE0215080409040E1F700C000009CE07C
:1003F00088E10FB6F894A895809360000FBE9093A3
:100400006000FFCF882321F00E9420100E94271057
:100410000895882339F090918201892B809382017D
:100420000E9427100895882309F451C09CEF980F6B
:10043000913A60F4E8E3F1E09281891301C01282FD
:10044000319691E0EE33F907B9F70DC090E2980FBD
:10045000983060F4877091E001C0990F8A95EAF7AF
:10046000892F0E9420100E94271008959BE5980F65
:100470009330A0F48091130190911401892B39F1EC
:100480001092140110921301E0911B01F0911C01D4
:100490003097E9F00680F781E02D16C0885A873141
:1004A000B0F48091150190911601892B81F0109282
:1004B000160110921501E0911B01F0911C0130977B
:1004C00031F00084F185E02D80E090E009950895F9
:1004D000CF938823A9F1C82F8CEF8C0F813AF0F4C9
:1004E000EAE3F1E08191C81729F081E0E034F807F0
:1004F000C9F70EC0E8E3F1E08EE391E02281C21378
:1005000001C0128231968E179F07C1F70E942710F3
:100510006C2F88E391E00E94490D10C080E28C0F9F
:10052000883070F4C77081E090E001C0880FCA95F0
:10053000EAF790918201892B809382010E94271013
:10054000CF910895A7E1B0E0E8EAF2E00C945615E7
:100550004B8B5C8B6D8B7E8B8F8B6111109281012D
:1005600086E09E01235F3F4FD901E82F1D92EA9557
:10057000E9F795E0FE017396D90101900D929A95E5
:10058000E1F79C894E895F897B897D879E876F878C
:10059000598B488BF901DE01179601900D928A95CF
:1005A000E1F7CE0107960E940D11811153C086E03C
:1005B000FE013796DE01119601900D928A95E1F7C2
:1005C000FF81E8856A857B856115710531F0EF3F14
:1005D00031F481E0FF3F19F403C081E001C080E005
:1005E00080FD38C08091460190E09C012F5F3F4F15
:1005F000277033274091770150E02417350789F1A0
:10060000F983EA837D836C8366E070E00E942F1596
:10061000DC01A95BBE4F96E0FE01319601900D9280
:100620009A95E1F7209346010E949C1013C090E038
:1006300066E070E00E942F15895B9E4F0E940D11AD
:100640008823E1F08091770190E0019687709927E7
:100650008093770180917701909146018913E7CFCC
:100660000DC00E94DE011092460110927701E0E475
:10067000F1E086E0DF011D928A95E9F76796E2E0F6
:100680000C947215AAE0B0E0E8E4F3E00C944D1588
:10069000FC018081918123813481232B31F09F3FA4
:1006A00031F491E08F3F19F403C091E001C090E074
:1006B00090FDC8C47F0185E0DE01169601900D9281
:1006C0008A95E1F7F70122818E819F81222349F0EB
:1006D0000E943201182F682F8E819F810E94100185
:1006E00003C00E94EF00182F6E817F81812F0E942E
:1006F0000C0E8C01843FFCE59F0741F190F4093D0D
:100700008CE51807E9F00A3D9CE5190789F1083DD9
:10071000ECE51E07B1F506E221EE41EE68ED7CE561
:100720002CC0863FFCE59F07E9F0B0F0073F8CE561
:10073000180739F507E225EE46EE67EF7CE51DC0A8
:1007400007E225EE45EE69ED7CE517C006E221EEF5
:1007500040EE64EF7CE511C007E225EE44EE65EF64
:100760007CE50BC006E221EE42EE66EF7CE505C0BB
:1007700008E221E045EE6AED7CE5C7010E94A21285
:100780004FC4F7018281882309F497C11092970121
:100790000430FDE51F0758F40B3F2CE51207C0F4A9
:1007A000C80182509C45449708F071C111C0063AB7
:1007B0008DE5180769F030F40236EDE51E0709F003
:1007C00066C106C0C8018E5A9D45039708F05FC1F7
:1007D0000E94A10F90938E0180938D010231FCE560
:1007E0001F0709F40CC108F04DC009308CE518074B
:1007F00009F4D9C008F50530ECE51E0709F4C0C0BE
:1008000080F403302CE5120709F4B1C008F0B5C03C
:1008100002309CE5190709F02AC180918D018160A1
:10082000A9C00730ECE51E0709F4B5C008F0B7C051
:1008300080918D0180619EC00D302CE5120709F476
:10084000C8C058F40B309CE5190709F4B6C008F08D
:10085000BCC080918D018860ACC00F30FCE51F07E3
:1008600009F4C5C008F4B8C000318CE5180709F4D4
:10087000C2C001319CE5190709F0F9C080918D01D2
:100880008F7B78C00115EDE51E0709F4C3C098F50C
:100890000B3F2CE5120709F477C0C0F404319CE546
:1008A000190709F4C6C008F4B0C00531FCE51F07FC
:1008B00009F0DDC080918D0182FB222720F991E0B3
:1008C000922790FB82F990FB83F954C00D3F2CE5F1
:1008D000120709F485C008F45AC00E3F9CE51907B9
:1008E00009F481C00F3FECE51E0709F0C0C08091FC
:1008F0008E01826060C00236FDE51F0709F4ABC0BF
:1009000070F402308DE5180709F49FC008F487C021
:100910000330EDE51E0709F0AAC060E097C00E3A6B
:10092000FDE51F0701F160F4063A8DE5180709F0AF
:100930009EC080918D01982F909590FB80F91AC0F0
:100940000F3A9DE51907E9F1003BEDE51E0709F0B7
:100950008EC080918E0183FB222720F991E092279F
:1009600090FB83F982C080918E0188607EC0809167
:100970008D01826080938D017AC080918D0119C0B4
:1009800080918D018860F6CF80918E0114C0809196
:100990008E0182606AC080918D018062EBCF809170
:1009A0008D018064E7CF0E94DE0180918D01806817
:1009B000E1CF8460DFCF816058C080918D018E7F50
:1009C000D9CF80918E01877F50C080918D018D7F1E
:1009D000D1CF80918D011CC080918D01877FCACFBE
:1009E00080918E011AC080918E018D7F3EC08091D2
:1009F0008D018F7EBFCF80918D018F7DBBCF0E94F7
:100A0000DE0180918D018F77B5CF80918D01877F39
:100A10008B7FB0CF80918E018D7F8E7F26C080919D
:100A20008E01982F909591708E7F892B90FB81F984
:100A30001CC00E94DE0180918D0187FB222720F9D6
:100A400091E0922790FB87F995CF61E08EE090E0EE
:100A50000E94FB140CC080918D0184FB222720F999
:100A600091E0922790FB84F985CF80938E0160916D
:100A70008D0110918E0184E090E00E94FB14612FA3
:100A800082E290E00E94FB140E94DE01C9C206319E
:100A9000FCE51F0761F5809182018A7A91E009F4F3
:100AA00090E090931201882311F065E301C069E2A0
:100AB00088E391E00E94490D17C00631FCE51F074D
:100AC00009F06EC080911201882309F4B9C285E350
:100AD000E8E3F1E02EE331E09281891301C0128254
:100AE00031962E173F07C1F70E94271099C20B3588
:100AF000FDE51F0709F44FC058F401158CE51807F0
:100B000089F00F3D1C4509F04BC00E94B20F39C05F
:100B10000D35EDE51E07B9F108F43FC0083A1D4553
:100B200081F13EC00E94DE018FEF94E3ECE0815042
:100B30009040E040E1F700C0000081E08093E000D9
:100B400080E28093D8001092C9008FE19EE4019763
:100B5000F1F700C0000087E090EBDC018093980182
:100B600090939901A0939A01B0939B019CE088E136
:100B70000FB6F894A895809360000FBE9093600024
:100B8000FFCF0E94EC0180918E0182FB882780F9C3
:100B900091E0892703C081E001C080E00E948010BD
:100BA000F701828100811181882349F0C8010E94E8
:100BB0003201D82E682FC8010E94100104C0C8015C
:100BC0000E94EF00D82EB8018D2D0E940C0E0E94BD
:100BD000230E8C01982EF701B280A580A2949FE08D
:100BE000A922809178018770B9F0BB20A9F0812FEC
:100BF000807F803421F080E2800F883068F080911F
:100C00008E0182FF09C082E00E946310809178010A
:100C10008770DD24D3948111D12CC12EC2948FE032
:100C2000C8228C2D90E08C30910508F0CBC1FC01DE
:100C3000E65CFF4F0C944015812F807F1F70882346
:100C400011F01295107FBB20B9F0112309F4A8C14F
:100C500080E2800F883010F0911006C080918201F0
:100C6000182B1093820105C080918101182B1093DD
:100C700081010E94271094C1802F0E94130211232A
:100C800009F4A0C1005E083078F1992069F110954F
:100C90008091810118231093810129C0812F807FC9
:100CA0001F70803211F01295107F992021F0F1E031
:100CB0009F16D9F149C080918E0182FD1BC0BB20D7
:100CC00069F0112339F080918201182B1093820171
:100CD0000E94271080E00E94680274C180E00E9498
:100CE0001302112309F46EC1812F0E9420100E946B
:100CF000271068C1BB2081F080918301AA2051F0A8
:100D000021E0A21207C0182B181709F45BC1109339
:100D1000830158C1812B10C0AA2021F081E0A816C0
:100D200009F450C10E941A1027C0BB2041F095E081
:100D30009A1508F447C1812F0E94090243C1E4E0DB
:100D4000EA1508F43FC118C0BB2049F0AA2099F366
:100D5000F701858180FF24C18F708583ECCFAA20A5
:100D600059F0093309F02BC1FFEF27EE83E0F15072
:100D700020408040E1F721C1812F0E94020222C160
:100D8000812F837009F041C0B11020C1302F3295FE
:100D900036953770330F330F802F8F7090E0032E0E
:100DA00002C0880F991F0A94E2F704FF0BC04FE0BE
:100DB00050E002C0440F551F3A95E2F79A01209582
:100DC000309502C020E030E0169516951370123071
:100DD00099F068F44091840150918501113029F017
:100DE000822B932B8423952304C0842B952B822B59
:100DF000932B0E949E01EAC0822B932B20918401A9
:100E00003091850182279327F4CFBB2019F0812FE1
:100E1000817001C08695882309F4D8C0302F32959F
:100E200036953770330F330F802F8F7090E0032E7D
:100E300002C0880F991F0A94E2F704FF0BC04FE02D
:100E400050E002C0440F551F3A95E2F79A012095F1
:100E5000309502C020E030E01695169513701230E0
:100E600079F0B8F440918B0150918C01113029F048
:100E7000822B932B842395230EC0842B952B09C0A2
:100E8000822B932B20918B0130918C018227932709
:100E900002C0822B932B0E94660198C01F70BB205A
:100EA00039F0812F0E948E01802F0E9409028EC08E
:100EB000802F0E940202812F0E947C0187C0802F18
:100EC00092EF991699F1991538F0E0EF9E1659F0C6
:100ED000F1EF9F1631F160C023EF921671F194EF9C
:100EE0009916D9F059C0BB2099F0E4E0EA1508F44E
:100EF00069C01F7181E090E002C0880F991F1A95A8
:100F0000E2F720918B0130918C018227932722C038
:100F1000F5E0FA1508F456C0ECCF80918E0182FD01
:100F20001CC0BB2029F0812F8F7129C0BB20D9F3B1
:100F3000812F8F710E947C0145C0BB2049F01F7139
:100F400081E090E002C0880F991F1A95E2F702C075
:100F500080E090E00E94660135C0BB2099F01F71CF
:100F6000812F0E948E0180918E0182FF07C0812F08
:100F7000880F880F880F836080937801812F0E94EB
:100F80008E0120C081E00E94631021E02A15D0F478
:100F900082E00E94631016C0BB2021F0AA2019F243
:100FA000802F99CEAA2021F2893349F48FEF97EE52
:100FB000E3E081509040E040E1F700C00000802F66
:100FC0000E94130288EF8C0D843010F40E94630D90
:100FD000DD20A9F08091780180FD11C0F701128217
:100FE0008595859585950E948E01C7010E944203D3
:100FF000809178018595859585950E947C0185E095
:10100000F701DE01119601900D928A95E1F70981B1
:101010001A81C8010E94EF00B8010E940C0E12C094
:1010200080917801877071F0F7018281882351F0F7
:1010300080918E0182FF06C082E00E94631002C090
:1010400089E246CD2A96EBE00C9469152091E400E4
:101050003091E50095E64091EC00842F817040FFCF
:1010600023C08091E80080FD1DC080912E0188235F
:1010700099F0853099F08091EB0085FD11C0409189
:10108000E4005091E5002417350729F3915011F041
:101090009A01E1CF84E0089582E0089583E0089505
:1010A00081E0089580E008954091E80042FFDDCF9F
:1010B00008950F931F93CF93DF938C010E9426080E
:1010C000811118C0E80108E010E08091E80085FD7A
:1010D0000AC08091E8008E778093E8000E9426087D
:1010E000882399F307C089918093F1000150110979
:1010F00061F780E0DF91CF911F910F91089580916A
:10110000300187FF11C08091E80082FD05C0809109
:101110002E018111F8CF11C08091E8008B770BC0B0
:1011200080912E01882349F08091E80080FFF8CF5C
:101130008091E8008E778093E80008952091360131
:10114000309137012617370748F06115710539F4DA
:101150002091E8002E772093E80001C0B901FC013E
:1011600020E06115710561F180912E018823D9F18C
:101170008530D9F18091E80083FD39C08091E80085
:1011800082FD2BC08091E80080FFEBCF8091F200C0
:1011900090E06115710551F08830910538F4219186
:1011A0002093F100615071090196F3CF21E0089777
:1011B00009F020E08091E8008E778093E800D1CF9D
:1011C0002111D2CF0AC080912E01882361F0853091
:1011D00061F08091E80083FD0AC08091E80082FF01
:1011E000F2CF80E0089582E0089583E0089581E0E1
:1011F000089508950895089508958091230108950C
:10120000CF93DF9321E02093E9002FEF3091E800A6
:10121000215035FD06C035ED3A95F1F7000021115A
:10122000F5CF2091E80025FF14C0EC0140E050E02C
:1012300068E070E00E9459088091E8008E77809302
:10124000E80088E0FE01A4E2B1E001900D928A95E9
:10125000E1F7DF91CF910895982F953068F590933D
:10126000E900981739F05091EC002091ED00409181
:10127000F00003C0562F40E022E021FD02C09F5F36
:10128000ECCF3091EB003E7F3093EB003091ED00DE
:101290003D7F3093ED003091EB0031603093EB00F7
:1012A0005093EC002093ED004093F0002091EE006D
:1012B00027FDE5CF80E008958F708093E90081E0FD
:1012C0000895AAE2B0E0E7E6F9E00C945515E0E3F2
:1012D000F1E08091F100819321E0E833F207C9F752
:1012E00080913101833009F45DC030F4813071F0B8
:1012F000823009F497C0AEC08A3009F483C08B30C5
:1013000009F468C0893009F0A5C020C0809130017F
:10131000813A09F09FC08091E800877F8093E800C0
:101320008091340190913501892B21F468E084E2A9
:1013300091E003C060E080E090E070E00E949E08D1
:101340008091E8008B778093E80084C08091300121
:10135000813209F07FC08091340190913501892B51
:1013600009F078C08091E800877F8093E800809141
:10137000E80082FD05C080912E018111F8CF6AC07E
:101380008091F200823031F48091F100813011F0CF
:10139000863021F48091F100809323018091E80050
:1013A0008B7754C080913001813A09F053C080910D
:1013B000340190913501892B09F04CC08091E800EF
:1013C000877F8093E8008091E80080FFFCCF8091C8
:1013D000000137C0809130018132E1F58091340104
:1013E00090913501892BB1F58091E800877F80933A
:1013F000E8000E947F0880913201809300010E94E2
:10140000DE0128C080913001813221F58091E80011
:10141000877F8093E8000E947F088091330180934A
:10142000220118C080913001813AA1F48091E80036
:10143000877F8093E8008091E80080FFFCCF809157
:1014400022018093F1008091E8008E778093E8007C
:101450000E947F088091E80083FFB2C18091300133
:1014600090913101492F50E04A30510508F0A8C150
:10147000FA01EA5BFF4F0C944015803821F0823866
:1014800009F09EC108C080912C0190912D019923F3
:1014900089F082600FC0809134018F70853008F030
:1014A0008FC18093E9008091EB0085FB882780F94C
:1014B0001092E9009091E800977F9093E800809364
:1014C000F1001092F1004FC1282F2D7F09F078C153
:1014D000882319F0823061F073C18091320181302C
:1014E00009F06EC1933009F080E080932D012EC089
:1014F0008091320181112AC0809134018F702FEFC9
:10150000280F243008F05CC18093E9002091EB00A3
:1015100020FF1CC0933021F48091EB00806214C046
:101520009091EB0090619093EB0021E030E0A901F5
:1015300002C0440F551F8A95E2F74093EA001092CB
:10154000EA008091EB0088608093EB001092E90044
:101550008091E800877F0AC1811132C11091320168
:101560001F778091E3008078812B8093E300809146
:10157000E800877F8093E8000E947F088091E80060
:1015800080FFFCCF8091E30080688093E30011111D
:1015900002C082E001C083E080932E0111C1805817
:1015A000823008F00DC180913201909133018C3D61
:1015B00053E0950779F583E08A838AE289834FB700
:1015C000F894DE01139620E03EE051E2E32FF0E0D4
:1015D00050935700E49120FF03C0E295EF703F5F06
:1015E000EF708E2F90E0EA3010F0C79601C0C096E1
:1015F0008D939D932F5F243149F74FBF8091E80071
:10160000877F8093E8006AE270E0CE0101960E9435
:101610009E0898C04091340150913501292F3327FD
:1016200023303105A9F068F42130310509F4D7C021
:101630002230310509F0C4C082E290E0E0EEF0E033
:1016400032C02132310521F12232310529F1B8C0F1
:10165000992781309105A1F058F0029709F0B0C0A8
:10166000E4E1F1E0E4918E2F90E0E4E1F1E018C0D4
:10167000E8E4F1E0E4918E2F90E0E8E4F1E010C0BE
:10168000EAE3F1E0E4918E2F90E0EAE3F1E008C0B4
:10169000452B09F4A9C094C0452B09F4AAC090C0F9
:1016A000009709F48DC02091E800277F2093E8007F
:1016B00020913601309137018217930708F49C017D
:1016C00040E02115310569F180912E018823D1F187
:1016D0008530C1F18091E80083FD34C08091E8003D
:1016E00082FD2CC08091E80080FFEBCF8091F2005A
:1016F00090E02115310559F08830910540F444916E
:101700004093F1003196215031090196F2CF41E02A
:10171000089709F040E08091E8008E778093E80018
:10172000D0CF4111D1CF0AC080912E01882351F032
:10173000853041F08091E80083FD04C08091E8008D
:1017400082FFF2CF8091E8008B778093E80038C069
:101750008038B1F58091E800877F8093E800809120
:101760002F018093F1008091E8008E778093E8004C
:101770000E947F0825C0811123C080913201909181
:10178000330199270297E4F48091E800877F8093E2
:10179000E8001091320110932F010E947F0811116F
:1017A00006C08091E30087FD02C081E001C084E0B3
:1017B00080932E0161EC81E00E942C0980912E0122
:1017C0008091E80083FF1AC08091E800877F8093B2
:1017D000E8008091EB0080628093EB000FC082E113
:1017E00090E0E2E0F1E05FCF89E090E0E2EFF0E04E
:1017F0005ACF80E490E0E0EAF0E055CFAA96E3E02B
:101800000C9471151F920F920FB60F9211242F9303
:101810003F934F935F936F937F938F939F93AF9378
:10182000BF93CF93DF93EF93FF93C091E900CF7005
:101830008091EC00D82FD17080FDD0E81092E900A3
:101840008091F000877F8093F00078940E94610976
:101850001092E9008091F00088608093F000CD2B19
:10186000CF70C093E900FF91EF91DF91CF91BF91CD
:10187000AF919F918F917F916F915F914F913F9128
:101880002F910F900FBE0F901F9018951F920F92DF
:101890000FB60F9211242F933F934F935F936F9343
:1018A0007F938F939F93AF93BF93EF93FF93809119
:1018B000E10082FF09C08091E20082FF05C08091B3
:1018C000E1008B7F8093E1008091E10080FF17C0F1
:1018D0008091E20080FF13C08091E2008E7F8093B0
:1018E000E2008091E20080618093E2008091D80064
:1018F00080628093D80019BC85E080932E0180918E
:10190000E10084FF30C08091E20084FF2CC084E0BD
:1019100089BD86E089BD09B400FEFDCF8091D80065
:101920008F7D8093D8008091E1008F7E8093E100CD
:101930008091E2008F7E8093E2008091E2008160DE
:101940008093E20080912F01882311F084E007C08A
:101950008091E30087FD02C081E001C083E08093B5
:101960002E0180912E018091E10083FF26C080919D
:10197000E20083FF22C08091E100877F8093E10035
:1019800082E080932E0110922F018091E1008E7FE2
:101990008093E1008091E2008E7F8093E20080914D
:1019A000E20080618093E20060E080E00E942C0908
:1019B0008091F00088608093F000FF91EF91BF91DB
:1019C000AF919F918F917F916F915F914F913F91D7
:1019D0002F910F900FBE0F901F90189578941F9223
:1019E0000F920FB60F9211248F939F93AF93BF93D3
:1019F00080911E0190911F01A0912001B0912101C1
:101A00000196A11DB11D80931E0190931F01A0930B
:101A10002001B0932101BF91AF919F918F910F90C1
:101A20000FBE0F901F9018952FB7F89480911E014C
:101A300090911F01A0912001B09121012FBF089525
:101A40001F920F920FB60F9211248F939F93AF9313
:101A5000BF9380911D01811113C080911E0190914F
:101A60001F01A0912001B09121014196A11DB11D3E
:101A700080931E0190931F01A0932001B093210138
:101A8000BF91AF919F918F910F900FBE0F901F90BC
:101A900018959C01FC0132969FEF80E0419146171A
:101AA00089F09F3F19F4411101C0982F8F5F863054
:101AB000A9F79F3F39F0F901E90FF11D97FDFA955C
:101AC000628308950895E0911B01F0911C01309705
:101AD00029F00190F081E02D0995089580E00895A6
:101AE00080E0089590918D0192FF0DC0282F2871FC
:101AF000283019F4877F846006C0282F2471243091
:101B000011F48B7F886093FF0DC0282F2871283136
:101B100019F4877E846106C0282F2471243111F4C2
:101B20008B7E886120918E0120FF0DC0382F387187
:101B3000383019F4877F816006C0382F3171313019
:101B400011F48E7F886021FF0DC0282F2871283165
:101B500019F4877E816106C0282F2171213111F48B
:101B60008E7E886194FD877E0895EDE0F1E060E16E
:101B700071E030E041E021912F3FA1F0A22FA2952A
:101B8000AF70B0E090968C9190E02F7002C0959568
:101B900087952A95E2F780FD02C0842F02C080E07D
:101BA00090E0382B440F6E177F0729F780918A0148
:101BB000831759F030938A0181E0809388010E9455
:101BC000140D909387018093860180918801811183
:101BD00002C080E0089520918601309187014FB7BF
:101BE000F89480911E0190911F01A0912001B09165
:101BF00021014FBF821B930B039758F380918A01F9
:101C000090919101981721F08093910181E001C09A
:101C100080E0109288010895262F711111C0633061
:101C200078F490E063E070E00E942F15820F911D20
:101C3000FC01EE0FFF1FE45BFE4F85919491089528
:101C400080E090E00895CF93DF938238910569F1A9
:101C5000B0F48133910509F477C048F489329105D5
:101C600009F469C08A32910509F473C077C08533DD
:101C7000910509F45BC089339105B9F06FC0833ECB
:101C8000910591F138F4803E9105D1F0823E9105A5
:101C900031F164C0863E9105D9F1873E9105E9F1A5
:101CA000843E910509F05AC028C020918D0120FD85
:101CB00031C121FD2FC120918E0123FD37C14EC0BE
:101CC00080918D0180FD20C180918E0180FF22C115
:101CD00080918D0184FD15C183EE90E02FC180912C
:101CE0008D0182FF14C1F4CF80918D0182FD0FC15F
:101CF00080918E0180FD0EC1EBCF80918E0181FF1E
:101D00000FC180918D0184FDFCC087EE90E016C16B
:101D100080918D0183FF01C1F4CF80918D0183FDFE
:101D2000FCC080918E0181FDFBC0EBCF80918D01C5
:101D300085FDFCC0F8C080918D0185FDF4C08091C7
:101D40008E0183FFF3C0E0C080918D0186FDF1C05C
:101D5000F3C080918D0186FDEFC0EBC0811523E5B6
:101D60009207A8F5811532E5930708F095C0811513
:101D700040E29407D0F4811551E0950708F0DEC0E9
:101D8000853A910550F48430910508F0D7C0019749
:101D900009F0B7C081E090E0D1C09C01205E31091C
:101DA0002830310508F0ADC0C9C0811521E5920782
:101DB00008F06DC0811530E5930708F052C0811519
:101DC00040E4940708F49DC09F70906AB7C0EC018E
:101DD000811556E5950710F5C11585E5D80708F07A
:101DE00076C0C11524E5D20708F06CC09E012370AF
:101DF000332781E090E0AC0102C0440F551F2A95C3
:101E0000E2F7C695C695D0E0CE0165E0880F991F30
:101E10006A95E1F7842B952B9A6890C081153AE575
:101E2000930778F4811549E5940708F059C08115A6
:101E300058E5950708F465C0982F8827806F906A49
:101E40007DC090568115904208F05BC08D2F8F7138
:101E50000E94720D282F2F71CE0199279062922B2C
:101E60006DC0AC014370552721E030E002C0220F65
:101E7000331F4A95E2F78695869590E0F5E0880F46
:101E8000991FFA95E1F7822B932B9D6857C0982FE5
:101E90008827816F906A52C0AC014370552721E0BA
:101EA00030E002C0220F331F4A95E2F786958695EF
:101EB00090E075E0880F991F7A95E1F7822B932BBC
:101EC0009C683CC09C2F8827846F906A37C08C2FF9
:101ED0000E94720D8F7190E0982F882790622EC01B
:101EE0008F700E94720D94E0D695C7959A95E1F790
:101EF000CF70D0E0DC2FCC27D0699E01282BC90100
:101F00001DC080E090E01AC089E390E017C082EE27
:101F100090E014C080EE90E011C086EE90E00EC01C
:101F200084EE90E00BC085E390E008C089E290E089
:101F300005C08AE290E002C081E390E0DF91CF919A
:101F40000895CF9384E090E00E94ED14C82F82E2C0
:101F500090E00E94ED142C2F30E0A901582BCA010B
:101F6000CF91089568EE7EEF80E090E00E94191511
:101F700060E082E090E00E94FB1460E083E090E08B
:101F80000E94FB14109285011092840160E084E0AD
:101F900090E00E94FB1464E082E290E00E94FB1457
:101FA00060E085E090E00E94FB1460E086E090E055
:101FB0000E94FB146FEF87E090E00E94FB1440E06A
:101FC00050E0BA0188E090E00E940D1560E08DE0DD
:101FD00090E00E94FB1440E050E0BA0188E190E0FC
:101FE0000E940D1560E087E190E00E94FB1440E044
:101FF00050E0BA018CE190E00E940D1560E070E0C5
:1020000080E290E00E94191540E050E0BA0188E1BA
:1020100090E00E940D1540E050E0BA018FE090E0A2
:102020000E940D1540E050E0BA0183E190E00E946B
:102030000D150895809183018111109283010895F7
:1020400080959091820189238093820108959091D7
:10205000820180918101982B9093380180918301B6
:10206000882389F0892B80933801EAE3F1E097E037
:1020700080E0915029F021912223D9F38F5FF9CF8D
:1020800081110E941A1048E050E069E771E088E38E
:1020900091E00E947D15892BA9F088E0E8E3F1E04A
:1020A000A9E7B1E001900D928A95E1F7E0911B015B
:1020B000F0911C01309731F00280F381E02D88E32C
:1020C00091E009950895209178018095822380936D
:1020D0007801982F977099F430E0482F082E000C63
:1020E000550B2417350759F090918E0192FF07C0C8
:1020F0008595859585950E947C01109278010895BB
:10210000CF93C0918E01C2FB992790F9981791F057
:1021100080FBC2F9C0938E0160918D0184E090E054
:102120000E94FB146C2F82E290E00E94FB1482E07C
:102130000E946310CF91089580917701909146019C
:10214000891719F08F5F8770FBCF08951F93CF9386
:10215000DF938091450182958F7009F05AC080917C
:102160004201882309F455C020917701109146015E
:10217000C0914001D0914101A0914301B09144012F
:1021800081E0CF3F09F080E0482F211709F441C0DA
:10219000109721F0DF3F21F080E003C081E001C013
:1021A000842F30E080FD31C0C90166E070E00E94FC
:1021B0002F15FC01E95BFE4F81818D1326C08081C4
:1021C0008C1323C08281811120C0838194818A1B5A
:1021D0009B0B883C9105C8F4809145018F7080610C
:1021E00080934501C90166E070E00E942F15FC0153
:1021F000E45BFE4F90819F709061908380E491E05A
:102200000E9442030E949C1004C02F5F3F4F277022
:10221000BCCFDF91CF911F910895A1E1B0E0E3E140
:10222000F1E10C944D158C0185E0F801DE011D965D
:1022300001900D928A95E1F7D8011296EC90909159
:1022400040015091410120914301309144012115F9
:10225000310531F05F3F31F481E09F3F19F403C055
:1022600081E001C080E0B82FB1709B2E80FD28C1B5
:10227000D801EC9111964C9111971396CD90DC906A
:10228000149780E4A82E81E0B82EF0904201B601A8
:10229000621B730BFF2009F4CDC080914501683C9F
:1022A000710508F097C0282F207F09F056C05413FD
:1022B00012C09E1310C0FE2CE1100DC08F70806103
:1022C00080934501C5010E94420380914501D801D8
:1022D00015968C9332C1C114D10431F04F3F31F4C3
:1022E00081E0EF3F19F403C081E001C080E080FD90
:1022F00003C081E08E2502C080E090E0B82FB1706D
:10230000FB2E80FF20C020917701F09146012F170E
:1023100009F4F1C030E0C90166E070E00E942F15B9
:10232000DC01A95BBE4F11968C911197481307C031
:102330008C918E1304C012968C91E81204C02F5F0A
:102340003F4F2770E4CFFE2CEE2009F4F6C08091B9
:10235000450181608093450149C0541306C09E1316
:1023600004C0E11002C0D80189C0C8010E94A701C1
:10237000882351F1EE2041F120914501822F829571
:102380008F7090E0029774F080914001909141012C
:1023900098878F831986DB86CA862C87CE0107969D
:1023A0000E94420386E0F801A0E4B1E001900D92A2
:1023B0008A95E1F70E94A6100AC05417C9F0C80117
:1023C0000E94A70181111FC0C8010E944203FF247F
:1023D000F394B3C0282F207F81F780E491E00E941E
:1023E000420386E0F50111928A95E9F7F12CA5C028
:1023F0009E13E5CFE110E3CFD80115968C93C80169
:102400000E94420357C0EE20F9F220914501822F2D
:1024100082958F7090E002972CF28091400190910C
:1024200041019A8389831B82DD82CC822E83CE0177
:102430000196B6CF683C7105E8F5FE2CEE2021F23E
:1024400054132AC09E1328C02091450120FD1BC0B3
:10245000822F82958F70482F50E04115510599F0D9
:10246000D80115962C9315974F30510549F08F5F81
:10247000982F9295907F822F8F70892B15968C9331
:10248000C8010E94420386E0F801A0E4B1E0019097
:102490000D928A95E1F751C0C8010E94A7018111F0
:1024A00081CF80914501816080934501C8010E94E0
:1024B000420343C086E0F50111928A95E9F73DC0D9
:1024C000EE2009F481CFC8010E94A701F82E8823CD
:1024D00009F47ACF86E0F801A0E4B1E001900D9212
:1024E0008A95E1F780914001909141010E946F012E
:1024F0000E94A61022C0ED874E878D859E850E9482
:102500006F01292F22952F70223028F49F7039F007
:10251000811105C00BC0243028F49F7049F4805EFF
:10252000883020F0C8010E9442039F2CF92C05C07E
:10253000F8019581907F99F7F9CF8F2D6196EBE0A7
:102540000C946915EF92FF920F93CF93DF93C42FF2
:10255000D22FFC0182818823B1F0409397010E9421
:10256000140D909396018093950180E28C0F883032
:1025700008F06FC0C77081E001C0880FCA95EAF704
:102580000E94090266C080919701481356C02091AD
:102590009501309196014FB7F89480911E0190916A
:1025A0001F01A0912001B09121014FBF821B930B0D
:1025B000883C910508F041C0CD17C9F080E28C0F2E
:1025C000883040F4C77081E001C0880FCA95EAF7EF
:1025D0000E94020280E28D0F883048F481E09D2F36
:1025E000977001C0880F9A95EAF70E940902093393
:1025F00019F0E12CF12C03C080E5E82EF12C802F9E
:102600000E946802E114F10451F08FE99FE0019704
:10261000F1F700C0000091E0E91AF108F3CF802F34
:102620000E94130280E28D0F883098F4D77081E009
:1026300001C0880FDA95EAF70AC080E28C0F883073
:1026400040F4C77081E001C0880FCA95EAF70E9484
:102650000202DF91CF910F91FF90EF900895AAE0D1
:10266000B0E0E5E3F3E10C944D1584B7877F84BFB8
:102670000FB6F894A89580916000886180936000FF
:10268000109260000FBE90E080E80FB6F89480933F
:102690006100909361000FBE80E79DE0909311016F
:1026A000809310011092E2001092E1008091E0000E
:1026B00081608093E0008091D8008F778093D8006C
:1026C00019BC80916300816080936300109289013E
:1026D000809163008E7F8093630081E08093890105
:1026E0001092E2001092E1008091D8008F778093E1
:1026F000D8008091D80080688093D8008091D8005D
:102700008F7D8093D80084E089BD86E089BD09B4BF
:1027100000FEFDCF10922E0110922F0110922D017C
:1027200010922C0160E080E00E942C098091E10071
:102730008E7F8093E1008091E20081608093E200CF
:102740008091E20088608093E2008091E0008E7FBB
:102750008093E0008091E20084608093E2007894AE
:1027600080912E018823A1F01091E9001F709091B3
:10277000EC00892F817090FD80E8182B1092E90001
:102780008091E80083FD0E9461091F701093E900A9
:1027900082E084BD93E095BD9AEF97BD80936E0073
:1027A000ADE0B1E060E171E041E050E08D918F3F3C
:1027B00021F46A177B07D1F715C0E82FE295EF7077
:1027C000F0E021A18F708A0102C0000F111F8A95CD
:1027D000E2F7C801902F9095922391A392A1892BA3
:1027E00082A3E7CF1092910110928A0180E090E0DD
:1027F0000E94F514883E9E4F11F00E94B20F82E0B5
:1028000090E00E94ED14809392010E94A10F90939A
:102810008E0180938D010E94B50D8FEB9DE5019790
:10282000F1F700C000000E94B50D8091910180FF7A
:1028300003C081E00E948E0183E090E00E94ED14CD
:1028400090E00E949E0181E091E090931C018093B2
:102850001B0188E1C82ED12C90E4992E24E0A22EF1
:1028600036E0B32E80912E01853009F04FC0809163
:102870002E01853009F046C080912E01843009F187
:1028800010921D010FB6F894A895C09260000FBE7B
:102890009092600083B7817F846083BF83B781603B
:1028A00083BF7894889583B78E7F83BF0FB6F894E3
:1028B000A89580916000886180936000109260000C
:1028C0000FBE80912D01882391F20E94B50D809159
:1028D0009101882309F4CBCFA9BCB9BC09B400FE8F
:1028E000FDCF8091D8008F7D8093D8008091E0004B
:1028F00082608093E0008091E00081FDFCCF0E9427
:10290000DE01B5CF0E94DE010E94630D0E94B50D6D
:10291000E0909101F0909301FE2401F50E94140DC6
:102920008C0180918F01909190010817190709F48B
:102930003FC08FEF89838A831B820E94140D8160C0
:10294000782F9D838C8349815A816B818D810E9470
:10295000A2021093900100938F012AC010E001E0C1
:10296000802F8F21A1F01E831F8291E0802F8E2166
:1029700009F490E098870E94140D8160782F9A875F
:1029800089874E815F8168858A850E94A2021F5FC8
:10299000000F133029F7E09293018FB7F89440911C
:1029A0001E0150911F0160912001709121018FBF84
:1029B0000E94630D90919401891709F453CF80937D
:1029C00094018FB7F89440911E0150911F016091BE
:1029D0002001709121018FBF45CFF999FECF92BDA3
:1029E00081BDF89A992780B50895A8E1B0E042E04A
:1029F00050E00C942115262FF999FECF92BD81BD90
:102A0000F89A019700B4021639F01FBA20BD0FB62C
:102A1000F894FA9AF99A0FBE08950396272F0E9408
:102A2000FC140E94FB14252F0E94FC14242F0C94EC
:102A3000FC140196272F0E94FC140C94FB14DC015B
:102A4000CB01FC01F999FECF06C0F2BDE1BDF89AB9
:102A5000319600B40D9241505040B8F708950024CB
:102A6000552704C0080E591F880F991F009729F099
:102A700076956795B8F37105B9F7802D952F089570
:102A8000EE0FFF1F0590F491E02D09942F923F92D5
:102A90004F925F926F927F928F929F92AF92BF926E
:102AA000CF92DF92EF92FF920F931F93CF93DF931A
:102AB000CDB7DEB7CA1BDB0B0FB6F894DEBF0FBE77
:102AC000CDBF09942A88398848885F846E847D84C4
:102AD0008C849B84AA84B984C884DF80EE80FD80C6
:102AE0000C811B81AA81B981CE0FD11D0FB6F8943C
:102AF000DEBF0FBECDBFED010895FB01DC0104C0B8
:102B00008D910190801921F441505040C8F7881BE5
:082B1000990B0895F894FFCF22
:102B180001FD080009FC08FA08FB08F90837676690
:00000001FF
